{
	"_format": "hh-sol-artifact-1",
	"contractName": "Domains",
	"sourceName": "contracts/SoloDraft.sol",
	"abi": [
		{
			"inputs": [
				{
					"internalType": "string",
					"name": "_tld",
					"type": "string"
				}
			],
			"stateMutability": "payable",
			"type": "constructor"
		},
		{
			"anonymous": false,
			"inputs": [
				{
					"indexed": true,
					"internalType": "address",
					"name": "owner",
					"type": "address"
				},
				{
					"indexed": true,
					"internalType": "address",
					"name": "approved",
					"type": "address"
				},
				{
					"indexed": true,
					"internalType": "uint256",
					"name": "tokenId",
					"type": "uint256"
				}
			],
			"name": "Approval",
			"type": "event"
		},
		{
			"anonymous": false,
			"inputs": [
				{
					"indexed": true,
					"internalType": "address",
					"name": "owner",
					"type": "address"
				},
				{
					"indexed": true,
					"internalType": "address",
					"name": "operator",
					"type": "address"
				},
				{
					"indexed": false,
					"internalType": "bool",
					"name": "approved",
					"type": "bool"
				}
			],
			"name": "ApprovalForAll",
			"type": "event"
		},
		{
			"anonymous": false,
			"inputs": [
				{
					"indexed": true,
					"internalType": "address",
					"name": "from",
					"type": "address"
				},
				{
					"indexed": true,
					"internalType": "address",
					"name": "to",
					"type": "address"
				},
				{
					"indexed": true,
					"internalType": "uint256",
					"name": "tokenId",
					"type": "uint256"
				}
			],
			"name": "Transfer",
			"type": "event"
		},
		{
			"inputs": [
				{
					"internalType": "address",
					"name": "to",
					"type": "address"
				},
				{
					"internalType": "uint256",
					"name": "tokenId",
					"type": "uint256"
				}
			],
			"name": "approve",
			"outputs": [],
			"stateMutability": "nonpayable",
			"type": "function"
		},
		{
			"inputs": [
				{
					"internalType": "address",
					"name": "owner",
					"type": "address"
				}
			],
			"name": "balanceOf",
			"outputs": [
				{
					"internalType": "uint256",
					"name": "",
					"type": "uint256"
				}
			],
			"stateMutability": "view",
			"type": "function"
		},
		{
			"inputs": [
				{
					"internalType": "string",
					"name": "",
					"type": "string"
				}
			],
			"name": "domains",
			"outputs": [
				{
					"internalType": "address",
					"name": "",
					"type": "address"
				}
			],
			"stateMutability": "view",
			"type": "function"
		},
		{
			"inputs": [
				{
					"internalType": "string",
					"name": "name",
					"type": "string"
				}
			],
			"name": "getAddress",
			"outputs": [
				{
					"internalType": "address",
					"name": "",
					"type": "address"
				}
			],
			"stateMutability": "view",
			"type": "function"
		},
		{
			"inputs": [
				{
					"internalType": "uint256",
					"name": "tokenId",
					"type": "uint256"
				}
			],
			"name": "getApproved",
			"outputs": [
				{
					"internalType": "address",
					"name": "",
					"type": "address"
				}
			],
			"stateMutability": "view",
			"type": "function"
		},
		{
			"inputs": [
				{
					"internalType": "string",
					"name": "name",
					"type": "string"
				}
			],
			"name": "getRecord",
			"outputs": [
				{
					"internalType": "string",
					"name": "",
					"type": "string"
				}
			],
			"stateMutability": "view",
			"type": "function"
		},
		{
			"inputs": [
				{
					"internalType": "address",
					"name": "owner",
					"type": "address"
				},
				{
					"internalType": "address",
					"name": "operator",
					"type": "address"
				}
			],
			"name": "isApprovedForAll",
			"outputs": [
				{
					"internalType": "bool",
					"name": "",
					"type": "bool"
				}
			],
			"stateMutability": "view",
			"type": "function"
		},
		{
			"inputs": [],
			"name": "isOwner",
			"outputs": [
				{
					"internalType": "bool",
					"name": "",
					"type": "bool"
				}
			],
			"stateMutability": "view",
			"type": "function"
		},
		{
			"inputs": [],
			"name": "name",
			"outputs": [
				{
					"internalType": "string",
					"name": "",
					"type": "string"
				}
			],
			"stateMutability": "view",
			"type": "function"
		},
		{
			"inputs": [],
			"name": "owner",
			"outputs": [
				{
					"internalType": "address payable",
					"name": "",
					"type": "address"
				}
			],
			"stateMutability": "view",
			"type": "function"
		},
		{
			"inputs": [
				{
					"internalType": "uint256",
					"name": "tokenId",
					"type": "uint256"
				}
			],
			"name": "ownerOf",
			"outputs": [
				{
					"internalType": "address",
					"name": "",
					"type": "address"
				}
			],
			"stateMutability": "view",
			"type": "function"
		},
		{
			"inputs": [
				{
					"internalType": "string",
					"name": "name",
					"type": "string"
				}
			],
			"name": "price",
			"outputs": [
				{
					"internalType": "uint256",
					"name": "",
					"type": "uint256"
				}
			],
			"stateMutability": "pure",
			"type": "function"
		},
		{
			"inputs": [
				{
					"internalType": "string",
					"name": "",
					"type": "string"
				}
			],
			"name": "records",
			"outputs": [
				{
					"internalType": "string",
					"name": "",
					"type": "string"
				}
			],
			"stateMutability": "view",
			"type": "function"
		},
		{
			"inputs": [
				{
					"internalType": "string",
					"name": "name",
					"type": "string"
				}
			],
			"name": "register",
			"outputs": [],
			"stateMutability": "payable",
			"type": "function"
		},
		{
			"inputs": [
				{
					"internalType": "address",
					"name": "from",
					"type": "address"
				},
				{
					"internalType": "address",
					"name": "to",
					"type": "address"
				},
				{
					"internalType": "uint256",
					"name": "tokenId",
					"type": "uint256"
				}
			],
			"name": "safeTransferFrom",
			"outputs": [],
			"stateMutability": "nonpayable",
			"type": "function"
		},
		{
			"inputs": [
				{
					"internalType": "address",
					"name": "from",
					"type": "address"
				},
				{
					"internalType": "address",
					"name": "to",
					"type": "address"
				},
				{
					"internalType": "uint256",
					"name": "tokenId",
					"type": "uint256"
				},
				{
					"internalType": "bytes",
					"name": "data",
					"type": "bytes"
				}
			],
			"name": "safeTransferFrom",
			"outputs": [],
			"stateMutability": "nonpayable",
			"type": "function"
		},
		{
			"inputs": [
				{
					"internalType": "address",
					"name": "operator",
					"type": "address"
				},
				{
					"internalType": "bool",
					"name": "approved",
					"type": "bool"
				}
			],
			"name": "setApprovalForAll",
			"outputs": [],
			"stateMutability": "nonpayable",
			"type": "function"
		},
		{
			"inputs": [
				{
					"internalType": "string",
					"name": "name",
					"type": "string"
				},
				{
					"internalType": "string",
					"name": "record",
					"type": "string"
				}
			],
			"name": "setRecord",
			"outputs": [],
			"stateMutability": "nonpayable",
			"type": "function"
		},
		{
			"inputs": [
				{
					"internalType": "bytes4",
					"name": "interfaceId",
					"type": "bytes4"
				}
			],
			"name": "supportsInterface",
			"outputs": [
				{
					"internalType": "bool",
					"name": "",
					"type": "bool"
				}
			],
			"stateMutability": "view",
			"type": "function"
		},
		{
			"inputs": [],
			"name": "symbol",
			"outputs": [
				{
					"internalType": "string",
					"name": "",
					"type": "string"
				}
			],
			"stateMutability": "view",
			"type": "function"
		},
		{
			"inputs": [],
			"name": "tld",
			"outputs": [
				{
					"internalType": "string",
					"name": "",
					"type": "string"
				}
			],
			"stateMutability": "view",
			"type": "function"
		},
		{
			"inputs": [
				{
					"internalType": "uint256",
					"name": "tokenId",
					"type": "uint256"
				}
			],
			"name": "tokenURI",
			"outputs": [
				{
					"internalType": "string",
					"name": "",
					"type": "string"
				}
			],
			"stateMutability": "view",
			"type": "function"
		},
		{
			"inputs": [
				{
					"internalType": "address",
					"name": "from",
					"type": "address"
				},
				{
					"internalType": "address",
					"name": "to",
					"type": "address"
				},
				{
					"internalType": "uint256",
					"name": "tokenId",
					"type": "uint256"
				}
			],
			"name": "transferFrom",
			"outputs": [],
			"stateMutability": "nonpayable",
			"type": "function"
		},
		{
			"inputs": [],
			"name": "withdraw",
			"outputs": [],
			"stateMutability": "nonpayable",
			"type": "function"
		}
	],
	"bytecode": "6080604052604051806108a0016040528061086b815260200162004dbf61086b9139600990816200003191906200051f565b506040518060400160405280600d81526020017f3c2f746578743e3c2f7376673e00000000000000000000000000000000000000815250600a90816200007891906200051f565b506040516200562a3803806200562a83398181016040528101906200009e91906200076a565b6040518060400160405280600981526020017f536f6c6f447261667400000000000000000000000000000000000000000000008152506040518060400160405280600281526020017f534400000000000000000000000000000000000000000000000000000000000081525081600090816200011b91906200051f565b5080600190816200012d91906200051f565b50505033600d60006101000a81548173ffffffffffffffffffffffffffffffffffffffff021916908373ffffffffffffffffffffffffffffffffffffffff16021790555080600890816200018291906200051f565b50620001cf6040518060400160405280601881526020017f2573206e616d652073657276696365206465706c6f796564000000000000000081525082620001d660201b6200162f1760201c565b5062000848565b620002788282604051602401620001ef9291906200080d565b6040516020818303038152906040527f4b5c4277000000000000000000000000000000000000000000000000000000007bffffffffffffffffffffffffffffffffffffffffffffffffffffffff19166020820180517bffffffffffffffffffffffffffffffffffffffffffffffffffffffff83818316178352505050506200027c60201b60201c565b5050565b60008151905060006a636f6e736f6c652e6c6f679050602083016000808483855afa5050505050565b600081519050919050565b7f4e487b7100000000000000000000000000000000000000000000000000000000600052604160045260246000fd5b7f4e487b7100000000000000000000000000000000000000000000000000000000600052602260045260246000fd5b600060028204905060018216806200032757607f821691505b6020821081036200033d576200033c620002df565b5b50919050565b60008190508160005260206000209050919050565b60006020601f8301049050919050565b600082821b905092915050565b600060088302620003a77fffffffffffffffffffffffffffffffffffffffffffffffffffffffffffffffff8262000368565b620003b3868362000368565b95508019841693508086168417925050509392505050565b6000819050919050565b6000819050919050565b600062000400620003fa620003f484620003cb565b620003d5565b620003cb565b9050919050565b6000819050919050565b6200041c83620003df565b620004346200042b8262000407565b84845462000375565b825550505050565b600090565b6200044b6200043c565b6200045881848462000411565b505050565b5b8181101562000480576200047460008262000441565b6001810190506200045e565b5050565b601f821115620004cf57620004998162000343565b620004a48462000358565b81016020851015620004b4578190505b620004cc620004c38562000358565b8301826200045d565b50505b505050565b600082821c905092915050565b6000620004f460001984600802620004d4565b1980831691505092915050565b60006200050f8383620004e1565b9150826002028217905092915050565b6200052a82620002a5565b67ffffffffffffffff811115620005465762000545620002b0565b5b6200055282546200030e565b6200055f82828562000484565b600060209050601f83116001811462000597576000841562000582578287015190505b6200058e858262000501565b865550620005fe565b601f198416620005a78662000343565b60005b82811015620005d157848901518255600182019150602085019450602081019050620005aa565b86831015620005f15784890151620005ed601f891682620004e1565b8355505b6001600288020188555050505b505050505050565b6000604051905090565b600080fd5b600080fd5b600080fd5b600080fd5b6000601f19601f8301169050919050565b620006408262000624565b810181811067ffffffffffffffff82111715620006625762000661620002b0565b5b80604052505050565b60006200067762000606565b905062000685828262000635565b919050565b600067ffffffffffffffff821115620006a857620006a7620002b0565b5b620006b38262000624565b9050602081019050919050565b60005b83811015620006e0578082015181840152602081019050620006c3565b60008484015250505050565b600062000703620006fd846200068a565b6200066b565b9050828152602081018484840111156200072257620007216200061f565b5b6200072f848285620006c0565b509392505050565b600082601f8301126200074f576200074e6200061a565b5b815162000761848260208601620006ec565b91505092915050565b60006020828403121562000783576200078262000610565b5b600082015167ffffffffffffffff811115620007a457620007a362000615565b5b620007b28482850162000737565b91505092915050565b600082825260208201905092915050565b6000620007d982620002a5565b620007e58185620007bb565b9350620007f7818560208601620006c0565b620008028162000624565b840191505092915050565b60006040820190508181036000830152620008298185620007cc565b905081810360208301526200083f8184620007cc565b90509392505050565b61456780620008586000396000f3fe60806040526004361061014b5760003560e01c806370a08231116100b6578063bf40fac11161006f578063bf40fac1146104b6578063c1880a98146104f3578063c87b56dd1461051c578063e985e9c514610559578063f2c298be14610596578063fe2c6198146105b25761014b565b806370a08231146103a65780638da5cb5b146103e35780638f32d59b1461040e57806395d89b4114610439578063a22cb46514610464578063b88d4fde1461048d5761014b565b8063264492351161010857806326449235146102845780632d551432146102c15780633ccfd60b146102ec57806342842e0e14610303578063541e771d1461032c5780636352211e146103695761014b565b806301ffc9a71461015057806306fdde031461018d578063081812fc146101b8578063095ea7b3146101f557806311dd88451461021e57806323b872dd1461025b575b600080fd5b34801561015c57600080fd5b5061017760048036038101906101729190612a8f565b6105ef565b6040516101849190612ad7565b60405180910390f35b34801561019957600080fd5b506101a26106d1565b6040516101af9190612b82565b60405180910390f35b3480156101c457600080fd5b506101df60048036038101906101da9190612bda565b610763565b6040516101ec9190612c48565b60405180910390f35b34801561020157600080fd5b5061021c60048036038101906102179190612c8f565b6107a9565b005b34801561022a57600080fd5b5061024560048036038101906102409190612d34565b6108c0565b6040516102529190612b82565b60405180910390f35b34801561026757600080fd5b50610282600480360381019061027d9190612d81565b610973565b005b34801561029057600080fd5b506102ab60048036038101906102a69190612f04565b6109d3565b6040516102b89190612c48565b60405180910390f35b3480156102cd57600080fd5b506102d6610a1c565b6040516102e39190612b82565b60405180910390f35b3480156102f857600080fd5b50610301610aaa565b005b34801561030f57600080fd5b5061032a60048036038101906103259190612d81565b610b70565b005b34801561033857600080fd5b50610353600480360381019061034e9190612f04565b610b90565b6040516103609190612b82565b60405180910390f35b34801561037557600080fd5b50610390600480360381019061038b9190612bda565b610c46565b60405161039d9190612c48565b60405180910390f35b3480156103b257600080fd5b506103cd60048036038101906103c89190612f4d565b610ccc565b6040516103da9190612f89565b60405180910390f35b3480156103ef57600080fd5b506103f8610d83565b6040516104059190612fc5565b60405180910390f35b34801561041a57600080fd5b50610423610da9565b6040516104309190612ad7565b60405180910390f35b34801561044557600080fd5b5061044e610e01565b60405161045b9190612b82565b60405180910390f35b34801561047057600080fd5b5061048b6004803603810190610486919061300c565b610e93565b005b34801561049957600080fd5b506104b460048036038101906104af91906130ed565b610ea9565b005b3480156104c257600080fd5b506104dd60048036038101906104d89190612d34565b610f0b565b6040516104ea9190612c48565b60405180910390f35b3480156104ff57600080fd5b5061051a60048036038101906105159190613170565b610f56565b005b34801561052857600080fd5b50610543600480360381019061053e9190612bda565b611004565b6040516105509190612b82565b60405180910390f35b34801561056557600080fd5b50610580600480360381019061057b91906131f1565b611116565b60405161058d9190612ad7565b60405180910390f35b6105b060048036038101906105ab9190612d34565b6111aa565b005b3480156105be57600080fd5b506105d960048036038101906105d49190612d34565b61158b565b6040516105e69190612f89565b60405180910390f35b60007f80ac58cd000000000000000000000000000000000000000000000000000000007bffffffffffffffffffffffffffffffffffffffffffffffffffffffff1916827bffffffffffffffffffffffffffffffffffffffffffffffffffffffff191614806106ba57507f5b5e139f000000000000000000000000000000000000000000000000000000007bffffffffffffffffffffffffffffffffffffffffffffffffffffffff1916827bffffffffffffffffffffffffffffffffffffffffffffffffffffffff1916145b806106ca57506106c9826116cb565b5b9050919050565b6060600080546106e090613260565b80601f016020809104026020016040519081016040528092919081815260200182805461070c90613260565b80156107595780601f1061072e57610100808354040283529160200191610759565b820191906000526020600020905b81548152906001019060200180831161073c57829003601f168201915b5050505050905090565b600061076e82611735565b6004600083815260200190815260200160002060009054906101000a900473ffffffffffffffffffffffffffffffffffffffff169050919050565b60006107b482610c46565b90508073ffffffffffffffffffffffffffffffffffffffff168373ffffffffffffffffffffffffffffffffffffffff1603610824576040517f08c379a000000000000000000000000000000000000000000000000000000000815260040161081b90613303565b60405180910390fd5b8073ffffffffffffffffffffffffffffffffffffffff16610843611780565b73ffffffffffffffffffffffffffffffffffffffff16148061087257506108718161086c611780565b611116565b5b6108b1576040517f08c379a00000000000000000000000000000000000000000000000000000000081526004016108a890613395565b60405180910390fd5b6108bb8383611788565b505050565b6060600c83836040516108d49291906133e5565b908152602001604051809103902080546108ed90613260565b80601f016020809104026020016040519081016040528092919081815260200182805461091990613260565b80156109665780601f1061093b57610100808354040283529160200191610966565b820191906000526020600020905b81548152906001019060200180831161094957829003601f168201915b5050505050905092915050565b61098461097e611780565b82611841565b6109c3576040517f08c379a00000000000000000000000000000000000000000000000000000000081526004016109ba90613470565b60405180910390fd5b6109ce8383836118d6565b505050565b600b818051602081018201805184825260208301602085012081835280955050505050506000915054906101000a900473ffffffffffffffffffffffffffffffffffffffff1681565b60088054610a2990613260565b80601f0160208091040260200160405190810160405280929190818152602001828054610a5590613260565b8015610aa25780601f10610a7757610100808354040283529160200191610aa2565b820191906000526020600020905b815481529060010190602001808311610a8557829003601f168201915b505050505081565b610ab2610da9565b610abb57600080fd5b600047905060003373ffffffffffffffffffffffffffffffffffffffff1682604051610ae6906134c1565b60006040518083038185875af1925050503d8060008114610b23576040519150601f19603f3d011682016040523d82523d6000602084013e610b28565b606091505b5050905080610b6c576040517f08c379a0000000000000000000000000000000000000000000000000000000008152600401610b6390613522565b60405180910390fd5b5050565b610b8b83838360405180602001604052806000815250610ea9565b505050565b600c818051602081018201805184825260208301602085012081835280955050505050506000915090508054610bc590613260565b80601f0160208091040260200160405190810160405280929190818152602001828054610bf190613260565b8015610c3e5780601f10610c1357610100808354040283529160200191610c3e565b820191906000526020600020905b815481529060010190602001808311610c2157829003601f168201915b505050505081565b600080610c5283611bcf565b9050600073ffffffffffffffffffffffffffffffffffffffff168173ffffffffffffffffffffffffffffffffffffffff1603610cc3576040517f08c379a0000000000000000000000000000000000000000000000000000000008152600401610cba9061358e565b60405180910390fd5b80915050919050565b60008073ffffffffffffffffffffffffffffffffffffffff168273ffffffffffffffffffffffffffffffffffffffff1603610d3c576040517f08c379a0000000000000000000000000000000000000000000000000000000008152600401610d3390613620565b60405180910390fd5b600360008373ffffffffffffffffffffffffffffffffffffffff1673ffffffffffffffffffffffffffffffffffffffff168152602001908152602001600020549050919050565b600d60009054906101000a900473ffffffffffffffffffffffffffffffffffffffff1681565b6000600d60009054906101000a900473ffffffffffffffffffffffffffffffffffffffff1673ffffffffffffffffffffffffffffffffffffffff163373ffffffffffffffffffffffffffffffffffffffff1614905090565b606060018054610e1090613260565b80601f0160208091040260200160405190810160405280929190818152602001828054610e3c90613260565b8015610e895780601f10610e5e57610100808354040283529160200191610e89565b820191906000526020600020905b815481529060010190602001808311610e6c57829003601f168201915b5050505050905090565b610ea5610e9e611780565b8383611c0c565b5050565b610eba610eb4611780565b83611841565b610ef9576040517f08c379a0000000000000000000000000000000000000000000000000000000008152600401610ef090613470565b60405180910390fd5b610f0584848484611d78565b50505050565b6000600b8383604051610f1f9291906133e5565b908152602001604051809103902060009054906101000a900473ffffffffffffffffffffffffffffffffffffffff16905092915050565b3373ffffffffffffffffffffffffffffffffffffffff16600b8585604051610f7f9291906133e5565b908152602001604051809103902060009054906101000a900473ffffffffffffffffffffffffffffffffffffffff1673ffffffffffffffffffffffffffffffffffffffff1614610fce57600080fd5b8181600c8686604051610fe29291906133e5565b90815260200160405180910390209182610ffd9291906137f7565b5050505050565b606061100f82611735565b600060066000848152602001908152602001600020805461102f90613260565b80601f016020809104026020016040519081016040528092919081815260200182805461105b90613260565b80156110a85780601f1061107d576101008083540402835291602001916110a8565b820191906000526020600020905b81548152906001019060200180831161108b57829003601f168201915b5050505050905060006110b9611dd4565b905060008151036110ce578192505050611111565b6000825111156111035780826040516020016110eb9291906138f8565b60405160208183030381529060405292505050611111565b61110c84611deb565b925050505b919050565b6000600560008473ffffffffffffffffffffffffffffffffffffffff1673ffffffffffffffffffffffffffffffffffffffff16815260200190815260200160002060008373ffffffffffffffffffffffffffffffffffffffff1673ffffffffffffffffffffffffffffffffffffffff16815260200190815260200160002060009054906101000a900460ff16905092915050565b600073ffffffffffffffffffffffffffffffffffffffff16600b83836040516111d49291906133e5565b908152602001604051809103902060009054906101000a900473ffffffffffffffffffffffffffffffffffffffff1673ffffffffffffffffffffffffffffffffffffffff161461122357600080fd5b600061122f838361158b565b905080341015611274576040517f08c379a000000000000000000000000000000000000000000000000000000000815260040161126b90613968565b60405180910390fd5b60008383600860405160200161128c93929190613a57565b60405160208183030381529060405290506000600982600a6040516020016112b693929190613a88565b604051602081830303815290604052905060006112d36007611e53565b9050600061132487878080601f016020809104026020016040519081016040528093929190818152602001838380828437600081840152601f19601f82011690508083019250505050505050611e61565b9050600061133182612016565b90506114256040518060600160405280603181526020016144886031913989898080601f016020809104026020016040519081016040528093929190818152602001838380828437600081840152601f19601f82011690508083019250505050505050600880546113a190613260565b80601f01602080910402602001604051908101604052809291908181526020018280546113cd90613260565b801561141a5780601f106113ef5761010080835404028352916020019161141a565b820191906000526020600020905b8154815290600101906020018083116113fd57829003601f168201915b5050505050866120e4565b600061145b8661143487612186565b8460405160200161144793929190613c35565b604051602081830303815290604052612186565b90506000816040516020016114709190613cde565b60405160208183030381529060405290506114a260405180606001604052806039815260200161444f603991396122fe565b6114e16040518060400160405280600e81526020017f46696e616c20746f6b656e5552490000000000000000000000000000000000008152508261162f565b6115026040518060600160405280603981526020016144b9603991396122fe565b61150c3386612397565b61151685826123b5565b33600b8b8b6040516115299291906133e5565b908152602001604051809103902060006101000a81548173ffffffffffffffffffffffffffffffffffffffff021916908373ffffffffffffffffffffffffffffffffffffffff16021790555061157f6007612422565b50505050505050505050565b6000806115db84848080601f016020809104026020016040519081016040528093929190818152602001838380828437600081840152601f19601f82011690508083019250505050505050611e61565b9050600081116115ea57600080fd5b60038103611603576706f05b59d3b20000915050611629565b6004810361161c57670429d069189e0000915050611629565b67016345785d8a00009150505b92915050565b6116c78282604051602401611645929190613d00565b6040516020818303038152906040527f4b5c4277000000000000000000000000000000000000000000000000000000007bffffffffffffffffffffffffffffffffffffffffffffffffffffffff19166020820180517bffffffffffffffffffffffffffffffffffffffffffffffffffffffff8381831617835250505050612438565b5050565b60007f01ffc9a7000000000000000000000000000000000000000000000000000000007bffffffffffffffffffffffffffffffffffffffffffffffffffffffff1916827bffffffffffffffffffffffffffffffffffffffffffffffffffffffff1916149050919050565b61173e81612461565b61177d576040517f08c379a00000000000000000000000000000000000000000000000000000000081526004016117749061358e565b60405180910390fd5b50565b600033905090565b816004600083815260200190815260200160002060006101000a81548173ffffffffffffffffffffffffffffffffffffffff021916908373ffffffffffffffffffffffffffffffffffffffff160217905550808273ffffffffffffffffffffffffffffffffffffffff166117fb83610c46565b73ffffffffffffffffffffffffffffffffffffffff167f8c5be1e5ebec7d5bd14f71427d1e84f3dd0314c0f7b2291e5b200ac8c7c3b92560405160405180910390a45050565b60008061184d83610c46565b90508073ffffffffffffffffffffffffffffffffffffffff168473ffffffffffffffffffffffffffffffffffffffff16148061188f575061188e8185611116565b5b806118cd57508373ffffffffffffffffffffffffffffffffffffffff166118b584610763565b73ffffffffffffffffffffffffffffffffffffffff16145b91505092915050565b8273ffffffffffffffffffffffffffffffffffffffff166118f682610c46565b73ffffffffffffffffffffffffffffffffffffffff161461194c576040517f08c379a000000000000000000000000000000000000000000000000000000000815260040161194390613da9565b60405180910390fd5b600073ffffffffffffffffffffffffffffffffffffffff168273ffffffffffffffffffffffffffffffffffffffff16036119bb576040517f08c379a00000000000000000000000000000000000000000000000000000000081526004016119b290613e3b565b60405180910390fd5b6119c883838360016124a2565b8273ffffffffffffffffffffffffffffffffffffffff166119e882610c46565b73ffffffffffffffffffffffffffffffffffffffff1614611a3e576040517f08c379a0000000000000000000000000000000000000000000000000000000008152600401611a3590613da9565b60405180910390fd5b6004600082815260200190815260200160002060006101000a81549073ffffffffffffffffffffffffffffffffffffffff02191690556001600360008573ffffffffffffffffffffffffffffffffffffffff1673ffffffffffffffffffffffffffffffffffffffff168152602001908152602001600020600082825403925050819055506001600360008473ffffffffffffffffffffffffffffffffffffffff1673ffffffffffffffffffffffffffffffffffffffff16815260200190815260200160002060008282540192505081905550816002600083815260200190815260200160002060006101000a81548173ffffffffffffffffffffffffffffffffffffffff021916908373ffffffffffffffffffffffffffffffffffffffff160217905550808273ffffffffffffffffffffffffffffffffffffffff168473ffffffffffffffffffffffffffffffffffffffff167fddf252ad1be2c89b69c2b068fc378daa952ba7f163c4a11628f55a4df523b3ef60405160405180910390a4611bca83838360016124a8565b505050565b60006002600083815260200190815260200160002060009054906101000a900473ffffffffffffffffffffffffffffffffffffffff169050919050565b8173ffffffffffffffffffffffffffffffffffffffff168373ffffffffffffffffffffffffffffffffffffffff1603611c7a576040517f08c379a0000000000000000000000000000000000000000000000000000000008152600401611c7190613ea7565b60405180910390fd5b80600560008573ffffffffffffffffffffffffffffffffffffffff1673ffffffffffffffffffffffffffffffffffffffff16815260200190815260200160002060008473ffffffffffffffffffffffffffffffffffffffff1673ffffffffffffffffffffffffffffffffffffffff16815260200190815260200160002060006101000a81548160ff0219169083151502179055508173ffffffffffffffffffffffffffffffffffffffff168373ffffffffffffffffffffffffffffffffffffffff167f17307eab39ab6107e8899845ad3d59bd9653f200f220920489ca2b5937696c3183604051611d6b9190612ad7565b60405180910390a3505050565b611d838484846118d6565b611d8f848484846124ae565b611dce576040517f08c379a0000000000000000000000000000000000000000000000000000000008152600401611dc590613f39565b60405180910390fd5b50505050565b606060405180602001604052806000815250905090565b6060611df682611735565b6000611e00611dd4565b90506000815111611e205760405180602001604052806000815250611e4b565b80611e2a84612016565b604051602001611e3b9291906138f8565b6040516020818303038152906040525b915050919050565b600081600001549050919050565b60008060008084519050600092505b8082101561200b576000858381518110611e8d57611e8c613f59565b5b602001015160f81c60f81b9050608060f81b817effffffffffffffffffffffffffffffffffffffffffffffffffffffffffffff19161015611edc57600183611ed59190613fb7565b9250611ff7565b60e060f81b817effffffffffffffffffffffffffffffffffffffffffffffffffffffffffffff19161015611f1e57600283611f179190613fb7565b9250611ff6565b60f060f81b817effffffffffffffffffffffffffffffffffffffffffffffffffffffffffffff19161015611f6057600383611f599190613fb7565b9250611ff5565b60f8801b817effffffffffffffffffffffffffffffffffffffffffffffffffffffffffffff19161015611fa157600483611f9a9190613fb7565b9250611ff4565b60fc60f81b817effffffffffffffffffffffffffffffffffffffffffffffffffffffffffffff19161015611fe357600583611fdc9190613fb7565b9250611ff3565b600683611ff09190613fb7565b92505b5b5b5b5b50828061200390613feb565b935050611e70565b829350505050919050565b60606000600161202584612635565b01905060008167ffffffffffffffff81111561204457612043612dd9565b5b6040519080825280601f01601f1916602001820160405280156120765781602001600182028036833780820191505090505b509050600082602001820190505b6001156120d9578080600190039150507f3031323334353637383961626364656600000000000000000000000000000000600a86061a8153600a85816120cd576120cc614033565b5b04945060008503612084575b819350505050919050565b612180848484846040516024016120fe9493929190614062565b6040516020818303038152906040527f8eafb02b000000000000000000000000000000000000000000000000000000007bffffffffffffffffffffffffffffffffffffffffffffffffffffffff19166020820180517bffffffffffffffffffffffffffffffffffffffffffffffffffffffff8381831617835250505050612438565b50505050565b606060008251036121a8576040518060200160405280600081525090506122f9565b60006040518060600160405280604081526020016144f260409139905060006003600285516121d79190613fb7565b6121e191906140bc565b60046121ed91906140ed565b905060006020826121fe9190613fb7565b67ffffffffffffffff81111561221757612216612dd9565b5b6040519080825280601f01601f1916602001820160405280156122495781602001600182028036833780820191505090505b509050818152600183018586518101602084015b818310156122b8576003830192508251603f8160121c168501518253600182019150603f81600c1c168501518253600182019150603f8160061c168501518253600182019150603f811685015182536001820191505061225d565b6003895106600181146122d257600281146122e2576122ed565b613d3d60f01b60028303526122ed565b603d60f81b60018303525b50505050508093505050505b919050565b612394816040516024016123129190612b82565b6040516020818303038152906040527f41304fac000000000000000000000000000000000000000000000000000000007bffffffffffffffffffffffffffffffffffffffffffffffffffffffff19166020820180517bffffffffffffffffffffffffffffffffffffffffffffffffffffffff8381831617835250505050612438565b50565b6123b1828260405180602001604052806000815250612788565b5050565b6123be82612461565b6123fd576040517f08c379a00000000000000000000000000000000000000000000000000000000081526004016123f4906141a1565b60405180910390fd5b8060066000848152602001908152602001600020908161241d91906141c1565b505050565b6001816000016000828254019250508190555050565b60008151905060006a636f6e736f6c652e6c6f679050602083016000808483855afa5050505050565b60008073ffffffffffffffffffffffffffffffffffffffff1661248383611bcf565b73ffffffffffffffffffffffffffffffffffffffff1614159050919050565b50505050565b50505050565b60006124cf8473ffffffffffffffffffffffffffffffffffffffff166127e3565b15612628578373ffffffffffffffffffffffffffffffffffffffff1663150b7a026124f8611780565b8786866040518563ffffffff1660e01b815260040161251a94939291906142e8565b6020604051808303816000875af192505050801561255657506040513d601f19601f820116820180604052508101906125539190614349565b60015b6125d8573d8060008114612586576040519150601f19603f3d011682016040523d82523d6000602084013e61258b565b606091505b5060008151036125d0576040517f08c379a00000000000000000000000000000000000000000000000000000000081526004016125c790613f39565b60405180910390fd5b805181602001fd5b63150b7a0260e01b7bffffffffffffffffffffffffffffffffffffffffffffffffffffffff1916817bffffffffffffffffffffffffffffffffffffffffffffffffffffffff19161491505061262d565b600190505b949350505050565b600080600090507a184f03e93ff9f4daa797ed6e38ed64bf6a1f0100000000000000008310612693577a184f03e93ff9f4daa797ed6e38ed64bf6a1f010000000000000000838161268957612688614033565b5b0492506040810190505b6d04ee2d6d415b85acef810000000083106126d0576d04ee2d6d415b85acef810000000083816126c6576126c5614033565b5b0492506020810190505b662386f26fc1000083106126ff57662386f26fc1000083816126f5576126f4614033565b5b0492506010810190505b6305f5e1008310612728576305f5e100838161271e5761271d614033565b5b0492506008810190505b612710831061274d57612710838161274357612742614033565b5b0492506004810190505b60648310612770576064838161276657612765614033565b5b0492506002810190505b600a831061277f576001810190505b80915050919050565b6127928383612806565b61279f60008484846124ae565b6127de576040517f08c379a00000000000000000000000000000000000000000000000000000000081526004016127d590613f39565b60405180910390fd5b505050565b6000808273ffffffffffffffffffffffffffffffffffffffff163b119050919050565b600073ffffffffffffffffffffffffffffffffffffffff168273ffffffffffffffffffffffffffffffffffffffff1603612875576040517f08c379a000000000000000000000000000000000000000000000000000000000815260040161286c906143c2565b60405180910390fd5b61287e81612461565b156128be576040517f08c379a00000000000000000000000000000000000000000000000000000000081526004016128b59061442e565b60405180910390fd5b6128cc6000838360016124a2565b6128d581612461565b15612915576040517f08c379a000000000000000000000000000000000000000000000000000000000815260040161290c9061442e565b60405180910390fd5b6001600360008473ffffffffffffffffffffffffffffffffffffffff1673ffffffffffffffffffffffffffffffffffffffff16815260200190815260200160002060008282540192505081905550816002600083815260200190815260200160002060006101000a81548173ffffffffffffffffffffffffffffffffffffffff021916908373ffffffffffffffffffffffffffffffffffffffff160217905550808273ffffffffffffffffffffffffffffffffffffffff16600073ffffffffffffffffffffffffffffffffffffffff167fddf252ad1be2c89b69c2b068fc378daa952ba7f163c4a11628f55a4df523b3ef60405160405180910390a4612a1f6000838360016124a8565b5050565b6000604051905090565b600080fd5b600080fd5b60007fffffffff0000000000000000000000000000000000000000000000000000000082169050919050565b612a6c81612a37565b8114612a7757600080fd5b50565b600081359050612a8981612a63565b92915050565b600060208284031215612aa557612aa4612a2d565b5b6000612ab384828501612a7a565b91505092915050565b60008115159050919050565b612ad181612abc565b82525050565b6000602082019050612aec6000830184612ac8565b92915050565b600081519050919050565b600082825260208201905092915050565b60005b83811015612b2c578082015181840152602081019050612b11565b60008484015250505050565b6000601f19601f8301169050919050565b6000612b5482612af2565b612b5e8185612afd565b9350612b6e818560208601612b0e565b612b7781612b38565b840191505092915050565b60006020820190508181036000830152612b9c8184612b49565b905092915050565b6000819050919050565b612bb781612ba4565b8114612bc257600080fd5b50565b600081359050612bd481612bae565b92915050565b600060208284031215612bf057612bef612a2d565b5b6000612bfe84828501612bc5565b91505092915050565b600073ffffffffffffffffffffffffffffffffffffffff82169050919050565b6000612c3282612c07565b9050919050565b612c4281612c27565b82525050565b6000602082019050612c5d6000830184612c39565b92915050565b612c6c81612c27565b8114612c7757600080fd5b50565b600081359050612c8981612c63565b92915050565b60008060408385031215612ca657612ca5612a2d565b5b6000612cb485828601612c7a565b9250506020612cc585828601612bc5565b9150509250929050565b600080fd5b600080fd5b600080fd5b60008083601f840112612cf457612cf3612ccf565b5b8235905067ffffffffffffffff811115612d1157612d10612cd4565b5b602083019150836001820283011115612d2d57612d2c612cd9565b5b9250929050565b60008060208385031215612d4b57612d4a612a2d565b5b600083013567ffffffffffffffff811115612d6957612d68612a32565b5b612d7585828601612cde565b92509250509250929050565b600080600060608486031215612d9a57612d99612a2d565b5b6000612da886828701612c7a565b9350506020612db986828701612c7a565b9250506040612dca86828701612bc5565b9150509250925092565b600080fd5b7f4e487b7100000000000000000000000000000000000000000000000000000000600052604160045260246000fd5b612e1182612b38565b810181811067ffffffffffffffff82111715612e3057612e2f612dd9565b5b80604052505050565b6000612e43612a23565b9050612e4f8282612e08565b919050565b600067ffffffffffffffff821115612e6f57612e6e612dd9565b5b612e7882612b38565b9050602081019050919050565b82818337600083830152505050565b6000612ea7612ea284612e54565b612e39565b905082815260208101848484011115612ec357612ec2612dd4565b5b612ece848285612e85565b509392505050565b600082601f830112612eeb57612eea612ccf565b5b8135612efb848260208601612e94565b91505092915050565b600060208284031215612f1a57612f19612a2d565b5b600082013567ffffffffffffffff811115612f3857612f37612a32565b5b612f4484828501612ed6565b91505092915050565b600060208284031215612f6357612f62612a2d565b5b6000612f7184828501612c7a565b91505092915050565b612f8381612ba4565b82525050565b6000602082019050612f9e6000830184612f7a565b92915050565b6000612faf82612c07565b9050919050565b612fbf81612fa4565b82525050565b6000602082019050612fda6000830184612fb6565b92915050565b612fe981612abc565b8114612ff457600080fd5b50565b60008135905061300681612fe0565b92915050565b6000806040838503121561302357613022612a2d565b5b600061303185828601612c7a565b925050602061304285828601612ff7565b9150509250929050565b600067ffffffffffffffff82111561306757613066612dd9565b5b61307082612b38565b9050602081019050919050565b600061309061308b8461304c565b612e39565b9050828152602081018484840111156130ac576130ab612dd4565b5b6130b7848285612e85565b509392505050565b600082601f8301126130d4576130d3612ccf565b5b81356130e484826020860161307d565b91505092915050565b6000806000806080858703121561310757613106612a2d565b5b600061311587828801612c7a565b945050602061312687828801612c7a565b935050604061313787828801612bc5565b925050606085013567ffffffffffffffff81111561315857613157612a32565b5b613164878288016130bf565b91505092959194509250565b6000806000806040858703121561318a57613189612a2d565b5b600085013567ffffffffffffffff8111156131a8576131a7612a32565b5b6131b487828801612cde565b9450945050602085013567ffffffffffffffff8111156131d7576131d6612a32565b5b6131e387828801612cde565b925092505092959194509250565b6000806040838503121561320857613207612a2d565b5b600061321685828601612c7a565b925050602061322785828601612c7a565b9150509250929050565b7f4e487b7100000000000000000000000000000000000000000000000000000000600052602260045260246000fd5b6000600282049050600182168061327857607f821691505b60208210810361328b5761328a613231565b5b50919050565b7f4552433732313a20617070726f76616c20746f2063757272656e74206f776e6560008201527f7200000000000000000000000000000000000000000000000000000000000000602082015250565b60006132ed602183612afd565b91506132f882613291565b604082019050919050565b6000602082019050818103600083015261331c816132e0565b9050919050565b7f4552433732313a20617070726f76652063616c6c6572206973206e6f7420746f60008201527f6b656e206f776e6572206f7220617070726f76656420666f7220616c6c000000602082015250565b600061337f603d83612afd565b915061338a82613323565b604082019050919050565b600060208201905081810360008301526133ae81613372565b9050919050565b600081905092915050565b60006133cc83856133b5565b93506133d9838584612e85565b82840190509392505050565b60006133f28284866133c0565b91508190509392505050565b7f4552433732313a2063616c6c6572206973206e6f7420746f6b656e206f776e6560008201527f72206f7220617070726f76656400000000000000000000000000000000000000602082015250565b600061345a602d83612afd565b9150613465826133fe565b604082019050919050565b600060208201905081810360008301526134898161344d565b9050919050565b600081905092915050565b50565b60006134ab600083613490565b91506134b68261349b565b600082019050919050565b60006134cc8261349e565b9150819050919050565b7f4661696c656420746f2077697468647261772045544800000000000000000000600082015250565b600061350c601683612afd565b9150613517826134d6565b602082019050919050565b6000602082019050818103600083015261353b816134ff565b9050919050565b7f4552433732313a20696e76616c696420746f6b656e2049440000000000000000600082015250565b6000613578601883612afd565b915061358382613542565b602082019050919050565b600060208201905081810360008301526135a78161356b565b9050919050565b7f4552433732313a2061646472657373207a65726f206973206e6f74206120766160008201527f6c6964206f776e65720000000000000000000000000000000000000000000000602082015250565b600061360a602983612afd565b9150613615826135ae565b604082019050919050565b60006020820190508181036000830152613639816135fd565b9050919050565b600082905092915050565b60008190508160005260206000209050919050565b60006020601f8301049050919050565b600082821b905092915050565b6000600883026136ad7fffffffffffffffffffffffffffffffffffffffffffffffffffffffffffffffff82613670565b6136b78683613670565b95508019841693508086168417925050509392505050565b6000819050919050565b60006136f46136ef6136ea84612ba4565b6136cf565b612ba4565b9050919050565b6000819050919050565b61370e836136d9565b61372261371a826136fb565b84845461367d565b825550505050565b600090565b61373761372a565b613742818484613705565b505050565b5b818110156137665761375b60008261372f565b600181019050613748565b5050565b601f8211156137ab5761377c8161364b565b61378584613660565b81016020851015613794578190505b6137a86137a085613660565b830182613747565b50505b505050565b600082821c905092915050565b60006137ce600019846008026137b0565b1980831691505092915050565b60006137e783836137bd565b9150826002028217905092915050565b6138018383613640565b67ffffffffffffffff81111561381a57613819612dd9565b5b6138248254613260565b61382f82828561376a565b6000601f83116001811461385e576000841561384c578287013590505b61385685826137db565b8655506138be565b601f19841661386c8661364b565b60005b828110156138945784890135825560018201915060208501945060208101905061386f565b868310156138b157848901356138ad601f8916826137bd565b8355505b6001600288020188555050505b50505050505050565b60006138d282612af2565b6138dc81856133b5565b93506138ec818560208601612b0e565b80840191505092915050565b600061390482856138c7565b915061391082846138c7565b91508190509392505050565b7f4e6f7420656e6f75676820455448207061696400000000000000000000000000600082015250565b6000613952601383612afd565b915061395d8261391c565b602082019050919050565b6000602082019050818103600083015261398181613945565b9050919050565b7f2e00000000000000000000000000000000000000000000000000000000000000600082015250565b60006139be6001836133b5565b91506139c982613988565b600182019050919050565b600081546139e181613260565b6139eb81866133b5565b94506001821660008114613a065760018114613a1b57613a4e565b60ff1983168652811515820286019350613a4e565b613a248561364b565b60005b83811015613a4657815481890152600182019150602081019050613a27565b838801955050505b50505092915050565b6000613a648285876133c0565b9150613a6f826139b1565b9150613a7b82846139d4565b9150819050949350505050565b6000613a9482866139d4565b9150613aa082856138c7565b9150613aac82846139d4565b9150819050949350505050565b7f7b226e616d655b695d223a202200000000000000000000000000000000000000600082015250565b6000613aef600d836133b5565b9150613afa82613ab9565b600d82019050919050565b7f222c20226465736372697074696f6e223a20224120646f6d61696e206f6e207460008201527f686520536f6c6f4472616674222c2022696d616765223a2022646174613a696d60208201527f6167652f7376672b786d6c3b6261736536342c00000000000000000000000000604082015250565b6000613b876053836133b5565b9150613b9282613b05565b605382019050919050565b7f222c226c656e677468223a220000000000000000000000000000000000000000600082015250565b6000613bd3600c836133b5565b9150613bde82613b9d565b600c82019050919050565b7f227d000000000000000000000000000000000000000000000000000000000000600082015250565b6000613c1f6002836133b5565b9150613c2a82613be9565b600282019050919050565b6000613c4082613ae2565b9150613c4c82866138c7565b9150613c5782613b7a565b9150613c6382856138c7565b9150613c6e82613bc6565b9150613c7a82846138c7565b9150613c8582613c12565b9150819050949350505050565b7f646174613a6170706c69636174696f6e2f6a736f6e3b6261736536342c000000600082015250565b6000613cc8601d836133b5565b9150613cd382613c92565b601d82019050919050565b6000613ce982613cbb565b9150613cf582846138c7565b915081905092915050565b60006040820190508181036000830152613d1a8185612b49565b90508181036020830152613d2e8184612b49565b90509392505050565b7f4552433732313a207472616e736665722066726f6d20696e636f72726563742060008201527f6f776e6572000000000000000000000000000000000000000000000000000000602082015250565b6000613d93602583612afd565b9150613d9e82613d37565b604082019050919050565b60006020820190508181036000830152613dc281613d86565b9050919050565b7f4552433732313a207472616e7366657220746f20746865207a65726f2061646460008201527f7265737300000000000000000000000000000000000000000000000000000000602082015250565b6000613e25602483612afd565b9150613e3082613dc9565b604082019050919050565b60006020820190508181036000830152613e5481613e18565b9050919050565b7f4552433732313a20617070726f766520746f2063616c6c657200000000000000600082015250565b6000613e91601983612afd565b9150613e9c82613e5b565b602082019050919050565b60006020820190508181036000830152613ec081613e84565b9050919050565b7f4552433732313a207472616e7366657220746f206e6f6e20455243373231526560008201527f63656976657220696d706c656d656e7465720000000000000000000000000000602082015250565b6000613f23603283612afd565b9150613f2e82613ec7565b604082019050919050565b60006020820190508181036000830152613f5281613f16565b9050919050565b7f4e487b7100000000000000000000000000000000000000000000000000000000600052603260045260246000fd5b7f4e487b7100000000000000000000000000000000000000000000000000000000600052601160045260246000fd5b6000613fc282612ba4565b9150613fcd83612ba4565b9250828201905080821115613fe557613fe4613f88565b5b92915050565b6000613ff682612ba4565b91507fffffffffffffffffffffffffffffffffffffffffffffffffffffffffffffffff820361402857614027613f88565b5b600182019050919050565b7f4e487b7100000000000000000000000000000000000000000000000000000000600052601260045260246000fd5b6000608082019050818103600083015261407c8187612b49565b905081810360208301526140908186612b49565b905081810360408301526140a48185612b49565b90506140b36060830184612f7a565b95945050505050565b60006140c782612ba4565b91506140d283612ba4565b9250826140e2576140e1614033565b5b828204905092915050565b60006140f882612ba4565b915061410383612ba4565b925082820261411181612ba4565b9150828204841483151761412857614127613f88565b5b5092915050565b7f45524337323155524953746f726167653a2055524920736574206f66206e6f6e60008201527f6578697374656e7420746f6b656e000000000000000000000000000000000000602082015250565b600061418b602e83612afd565b91506141968261412f565b604082019050919050565b600060208201905081810360008301526141ba8161417e565b9050919050565b6141ca82612af2565b67ffffffffffffffff8111156141e3576141e2612dd9565b5b6141ed8254613260565b6141f882828561376a565b600060209050601f83116001811461422b5760008415614219578287015190505b61422385826137db565b86555061428b565b601f1984166142398661364b565b60005b828110156142615784890151825560018201915060208501945060208101905061423c565b8683101561427e578489015161427a601f8916826137bd565b8355505b6001600288020188555050505b505050505050565b600081519050919050565b600082825260208201905092915050565b60006142ba82614293565b6142c4818561429e565b93506142d4818560208601612b0e565b6142dd81612b38565b840191505092915050565b60006080820190506142fd6000830187612c39565b61430a6020830186612c39565b6143176040830185612f7a565b818103606083015261432981846142af565b905095945050505050565b60008151905061434381612a63565b92915050565b60006020828403121561435f5761435e612a2d565b5b600061436d84828501614334565b91505092915050565b7f4552433732313a206d696e7420746f20746865207a65726f2061646472657373600082015250565b60006143ac602083612afd565b91506143b782614376565b602082019050919050565b600060208201905081810360008301526143db8161439f565b9050919050565b7f4552433732313a20746f6b656e20616c7265616479206d696e74656400000000600082015250565b6000614418601c83612afd565b9150614423826143e2565b602082019050919050565b600060208201905081810360008301526144478161440b565b905091905056fe0a2d2d2d2d2d2d2d2d2d2d2d2d2d2d2d2d2d2d2d2d2d2d2d2d2d2d2d2d2d2d2d2d2d2d2d2d2d2d2d2d2d2d2d2d2d2d2d2d2d2d2d2d2d2d2d2d5265676973746572696e672025732e2573206f6e2074686520636f6e7472616374207769746820746f6b656e49442025642d2d2d2d2d2d2d2d2d2d2d2d2d2d2d2d2d2d2d2d2d2d2d2d2d2d2d2d2d2d2d2d2d2d2d2d2d2d2d2d2d2d2d2d2d2d2d2d2d2d2d2d2d2d2d2d0a4142434445464748494a4b4c4d4e4f505152535455565758595a6162636465666768696a6b6c6d6e6f707172737475767778797a303132333435363738392b2fa2646970667358221220945017db1d5585f94b063924d63d088e3e0eaab3030d9f6d9372937926f4934a64736f6c634300081200333c73766720786d6c6e733d22687474703a2f2f7777772e77332e6f72672f323030302f737667222077696474683d2232373022206865696768743d22323730222066696c6c3d226e6f6e65223e3c706174682066696c6c3d2275726c282342292220643d224d302030683237307632373048307a222f3e3c646566733e3c66696c7465722069643d22412220636f6c6f722d696e746572706f6c6174696f6e2d66696c746572733d2273524742222066696c746572556e6974733d227573657253706163654f6e55736522206865696768743d22323730222077696474683d22323730223e3c666544726f70536861646f772064783d2230222064793d22312220737464446576696174696f6e3d22322220666c6f6f642d6f7061636974793d222e323235222077696474683d223230302522206865696768743d2232303025222f3e3c2f66696c7465723e3c2f646566733e3c7061746820643d224d37322e3836332034322e393439632d2e3636382d2e3338372d312e3432362d2e35392d322e3139372d2e3539732d312e3532392e3230342d322e3139372e35396c2d31302e30383120362e3033322d362e383520332e3933342d31302e30383120362e303332632d2e3636382e3338372d312e3432362e35392d322e3139372e3539732d312e3532392d2e3230342d322e3139372d2e35396c2d382e3031332d342e37323161342e353220342e35322030203020312d312e3538392d312e363136632d2e3338342d2e3636352d2e3539342d312e3431382d2e3630382d322e313837762d392e3331632d2e3031332d2e3737352e3138352d312e3533382e3537322d322e32303861342e323520342e323520302030203120312e3632352d312e3539356c372e3838342d342e3539632e3636382d2e33383720312e3432362d2e353920322e3139372d2e353973312e3532392e32303420322e3139372e35396c372e38383420342e353961342e353220342e353220302030203120312e35383920312e363136632e3338342e3636352e35393420312e3431382e36303820322e31383776362e3033326c362e38352d342e303635762d362e303332632e3031332d2e3737352d2e3138352d312e3533382d2e3537322d322e32303861342e323520342e32352030203020302d312e3632352d312e3539354c34312e3435362032342e3539632d2e3636382d2e3338372d312e3432362d2e35392d322e3139372d2e3539732d312e3532392e3230342d322e3139372e35396c2d31342e38363420382e36353561342e323520342e32352030203020302d312e36323520312e353935632d2e3338372e36372d2e35383520312e3433342d2e35373220322e3230387631372e343431632d2e3031332e3737352e31383520312e3533382e35373220322e32303861342e323520342e323520302030203020312e36323520312e3539356c31342e38363420382e363535632e3636382e33383720312e3432362e353920322e3139372e353973312e3532392d2e32303420322e3139372d2e35396c31302e3038312d352e39303120362e38352d342e3036352031302e3038312d352e393031632e3636382d2e33383720312e3432362d2e353920322e3139372d2e353973312e3532392e32303420322e3139372e35396c372e38383420342e353961342e353220342e353220302030203120312e35383920312e363136632e3338342e3636352e35393420312e3431382e36303820322e31383776392e333131632e3031332e3737352d2e31383520312e3533382d2e35373220322e32303861342e323520342e32352030203020312d312e36323520312e3539356c2d372e38383420342e373231632d2e3636382e3338372d312e3432362e35392d322e3139372e3539732d312e3532392d2e3230342d322e3139372d2e35396c2d372e3838342d342e353961342e353220342e35322030203020312d312e3538392d312e363136632d2e3338352d2e3636352d2e3539342d312e3431382d2e3630382d322e313837762d362e3033326c2d362e383520342e30363576362e303332632d2e3031332e3737352e31383520312e3533382e35373220322e32303861342e323520342e323520302030203020312e36323520312e3539356c31342e38363420382e363535632e3636382e33383720312e3432362e353920322e3139372e353973312e3532392d2e32303420322e3139372d2e35396c31342e3836342d382e363535632e3635372d2e33393420312e3230342d2e393520312e3538392d312e363136732e3539342d312e3431382e3630392d322e3138375635352e353338632e3031332d2e3737352d2e3138352d312e3533382d2e3537322d322e32303861342e323520342e32352030203020302d312e3632352d312e3539356c2d31342e3939332d382e3738367a222066696c6c3d2223666666222f3e3c646566733e3c6c696e6561724772616469656e742069643d2242222078313d2230222079313d2230222078323d22323730222079323d2232373022206772616469656e74556e6974733d227573657253706163654f6e557365223e3c73746f702073746f702d636f6c6f723d2223636235656565222f3e3c73746f70206f66667365743d2231222073746f702d636f6c6f723d2223306364376534222073746f702d6f7061636974793d222e3939222f3e3c2f6c696e6561724772616469656e743e3c2f646566733e3c7465787420783d2233322e352220793d223233312220666f6e742d73697a653d223237222066696c6c3d2223666666222066696c7465723d2275726c282341292220666f6e742d66616d696c793d22506c7573204a616b617274612053616e732c44656a6156752053616e732c4e6f746f20436f6c6f7220456d6f6a692c4170706c6520436f6c6f7220456d6f6a692c73616e732d73657269662220666f6e742d7765696768743d22626f6c64223e",
	"linkReferences": {},
	"deployedLinkReferences": {}
}