{
	"_format": "hh-sol-artifact-1",
	"contractName": "Domains",
	"sourceName": "contracts/SoloDraft.sol",
	"abi": [
		{
			"inputs": [
				{
					"internalType": "string",
					"name": "_tld",
					"type": "string"
				}
			],
			"stateMutability": "payable",
			"type": "constructor"
		},
		{
			"anonymous": false,
			"inputs": [
				{
					"indexed": true,
					"internalType": "address",
					"name": "owner",
					"type": "address"
				},
				{
					"indexed": true,
					"internalType": "address",
					"name": "approved",
					"type": "address"
				},
				{
					"indexed": true,
					"internalType": "uint256",
					"name": "tokenId",
					"type": "uint256"
				}
			],
			"name": "Approval",
			"type": "event"
		},
		{
			"anonymous": false,
			"inputs": [
				{
					"indexed": true,
					"internalType": "address",
					"name": "owner",
					"type": "address"
				},
				{
					"indexed": true,
					"internalType": "address",
					"name": "operator",
					"type": "address"
				},
				{
					"indexed": false,
					"internalType": "bool",
					"name": "approved",
					"type": "bool"
				}
			],
			"name": "ApprovalForAll",
			"type": "event"
		},
		{
			"anonymous": false,
			"inputs": [
				{
					"indexed": true,
					"internalType": "address",
					"name": "from",
					"type": "address"
				},
				{
					"indexed": true,
					"internalType": "address",
					"name": "to",
					"type": "address"
				},
				{
					"indexed": true,
					"internalType": "uint256",
					"name": "tokenId",
					"type": "uint256"
				}
			],
			"name": "Transfer",
			"type": "event"
		},
		{
			"inputs": [
				{
					"internalType": "address",
					"name": "to",
					"type": "address"
				},
				{
					"internalType": "uint256",
					"name": "tokenId",
					"type": "uint256"
				}
			],
			"name": "approve",
			"outputs": [],
			"stateMutability": "nonpayable",
			"type": "function"
		},
		{
			"inputs": [
				{
					"internalType": "address",
					"name": "owner",
					"type": "address"
				}
			],
			"name": "balanceOf",
			"outputs": [
				{
					"internalType": "uint256",
					"name": "",
					"type": "uint256"
				}
			],
			"stateMutability": "view",
			"type": "function"
		},
		{
			"inputs": [
				{
					"internalType": "string",
					"name": "",
					"type": "string"
				}
			],
			"name": "domains",
			"outputs": [
				{
					"internalType": "address",
					"name": "",
					"type": "address"
				}
			],
			"stateMutability": "view",
			"type": "function"
		},
		{
			"inputs": [
				{
					"internalType": "string",
					"name": "name",
					"type": "string"
				}
			],
			"name": "getAddress",
			"outputs": [
				{
					"internalType": "address",
					"name": "",
					"type": "address"
				}
			],
			"stateMutability": "view",
			"type": "function"
		},
		{
			"inputs": [],
			"name": "getAllNames",
			"outputs": [
				{
					"internalType": "string[]",
					"name": "",
					"type": "string[]"
				}
			],
			"stateMutability": "view",
			"type": "function"
		},
		{
			"inputs": [
				{
					"internalType": "uint256",
					"name": "tokenId",
					"type": "uint256"
				}
			],
			"name": "getApproved",
			"outputs": [
				{
					"internalType": "address",
					"name": "",
					"type": "address"
				}
			],
			"stateMutability": "view",
			"type": "function"
		},
		{
			"inputs": [
				{
					"internalType": "string",
					"name": "name",
					"type": "string"
				}
			],
			"name": "getRecord",
			"outputs": [
				{
					"internalType": "string",
					"name": "",
					"type": "string"
				}
			],
			"stateMutability": "view",
			"type": "function"
		},
		{
			"inputs": [
				{
					"internalType": "address",
					"name": "owner",
					"type": "address"
				},
				{
					"internalType": "address",
					"name": "operator",
					"type": "address"
				}
			],
			"name": "isApprovedForAll",
			"outputs": [
				{
					"internalType": "bool",
					"name": "",
					"type": "bool"
				}
			],
			"stateMutability": "view",
			"type": "function"
		},
		{
			"inputs": [],
			"name": "isOwner",
			"outputs": [
				{
					"internalType": "bool",
					"name": "",
					"type": "bool"
				}
			],
			"stateMutability": "view",
			"type": "function"
		},
		{
			"inputs": [],
			"name": "name",
			"outputs": [
				{
					"internalType": "string",
					"name": "",
					"type": "string"
				}
			],
			"stateMutability": "view",
			"type": "function"
		},
		{
			"inputs": [
				{
					"internalType": "uint256",
					"name": "",
					"type": "uint256"
				}
			],
			"name": "names",
			"outputs": [
				{
					"internalType": "string",
					"name": "",
					"type": "string"
				}
			],
			"stateMutability": "view",
			"type": "function"
		},
		{
			"inputs": [],
			"name": "owner",
			"outputs": [
				{
					"internalType": "address payable",
					"name": "",
					"type": "address"
				}
			],
			"stateMutability": "view",
			"type": "function"
		},
		{
			"inputs": [
				{
					"internalType": "uint256",
					"name": "tokenId",
					"type": "uint256"
				}
			],
			"name": "ownerOf",
			"outputs": [
				{
					"internalType": "address",
					"name": "",
					"type": "address"
				}
			],
			"stateMutability": "view",
			"type": "function"
		},
		{
			"inputs": [
				{
					"internalType": "string",
					"name": "name",
					"type": "string"
				}
			],
			"name": "price",
			"outputs": [
				{
					"internalType": "uint256",
					"name": "",
					"type": "uint256"
				}
			],
			"stateMutability": "pure",
			"type": "function"
		},
		{
			"inputs": [
				{
					"internalType": "string",
					"name": "",
					"type": "string"
				}
			],
			"name": "records",
			"outputs": [
				{
					"internalType": "string",
					"name": "",
					"type": "string"
				}
			],
			"stateMutability": "view",
			"type": "function"
		},
		{
			"inputs": [
				{
					"internalType": "string",
					"name": "name",
					"type": "string"
				}
			],
			"name": "register",
			"outputs": [],
			"stateMutability": "payable",
			"type": "function"
		},
		{
			"inputs": [
				{
					"internalType": "address",
					"name": "from",
					"type": "address"
				},
				{
					"internalType": "address",
					"name": "to",
					"type": "address"
				},
				{
					"internalType": "uint256",
					"name": "tokenId",
					"type": "uint256"
				}
			],
			"name": "safeTransferFrom",
			"outputs": [],
			"stateMutability": "nonpayable",
			"type": "function"
		},
		{
			"inputs": [
				{
					"internalType": "address",
					"name": "from",
					"type": "address"
				},
				{
					"internalType": "address",
					"name": "to",
					"type": "address"
				},
				{
					"internalType": "uint256",
					"name": "tokenId",
					"type": "uint256"
				},
				{
					"internalType": "bytes",
					"name": "data",
					"type": "bytes"
				}
			],
			"name": "safeTransferFrom",
			"outputs": [],
			"stateMutability": "nonpayable",
			"type": "function"
		},
		{
			"inputs": [
				{
					"internalType": "address",
					"name": "operator",
					"type": "address"
				},
				{
					"internalType": "bool",
					"name": "approved",
					"type": "bool"
				}
			],
			"name": "setApprovalForAll",
			"outputs": [],
			"stateMutability": "nonpayable",
			"type": "function"
		},
		{
			"inputs": [
				{
					"internalType": "string",
					"name": "name",
					"type": "string"
				},
				{
					"internalType": "string",
					"name": "record",
					"type": "string"
				}
			],
			"name": "setRecord",
			"outputs": [],
			"stateMutability": "nonpayable",
			"type": "function"
		},
		{
			"inputs": [
				{
					"internalType": "bytes4",
					"name": "interfaceId",
					"type": "bytes4"
				}
			],
			"name": "supportsInterface",
			"outputs": [
				{
					"internalType": "bool",
					"name": "",
					"type": "bool"
				}
			],
			"stateMutability": "view",
			"type": "function"
		},
		{
			"inputs": [],
			"name": "symbol",
			"outputs": [
				{
					"internalType": "string",
					"name": "",
					"type": "string"
				}
			],
			"stateMutability": "view",
			"type": "function"
		},
		{
			"inputs": [],
			"name": "tld",
			"outputs": [
				{
					"internalType": "string",
					"name": "",
					"type": "string"
				}
			],
			"stateMutability": "view",
			"type": "function"
		},
		{
			"inputs": [
				{
					"internalType": "uint256",
					"name": "tokenId",
					"type": "uint256"
				}
			],
			"name": "tokenURI",
			"outputs": [
				{
					"internalType": "string",
					"name": "",
					"type": "string"
				}
			],
			"stateMutability": "view",
			"type": "function"
		},
		{
			"inputs": [
				{
					"internalType": "address",
					"name": "from",
					"type": "address"
				},
				{
					"internalType": "address",
					"name": "to",
					"type": "address"
				},
				{
					"internalType": "uint256",
					"name": "tokenId",
					"type": "uint256"
				}
			],
			"name": "transferFrom",
			"outputs": [],
			"stateMutability": "nonpayable",
			"type": "function"
		},
		{
			"inputs": [],
			"name": "withdraw",
			"outputs": [],
			"stateMutability": "nonpayable",
			"type": "function"
		}
	],
	"bytecode": "6080604052604051806108a0016040528061086b8152602001620052ed61086b9139600990816200003191906200051f565b506040518060400160405280600d81526020017f3c2f746578743e3c2f7376673e00000000000000000000000000000000000000815250600a90816200007891906200051f565b5060405162005b5838038062005b5883398181016040528101906200009e91906200076a565b6040518060400160405280600981526020017f536f6c6f447261667400000000000000000000000000000000000000000000008152506040518060400160405280600281526020017f534400000000000000000000000000000000000000000000000000000000000081525081600090816200011b91906200051f565b5080600190816200012d91906200051f565b50505033600e60006101000a81548173ffffffffffffffffffffffffffffffffffffffff021916908373ffffffffffffffffffffffffffffffffffffffff16021790555080600890816200018291906200051f565b50620001cf6040518060400160405280601881526020017f2573206e616d652073657276696365206465706c6f796564000000000000000081525082620001d660201b6200194b1760201c565b5062000848565b620002788282604051602401620001ef9291906200080d565b6040516020818303038152906040527f4b5c4277000000000000000000000000000000000000000000000000000000007bffffffffffffffffffffffffffffffffffffffffffffffffffffffff19166020820180517bffffffffffffffffffffffffffffffffffffffffffffffffffffffff83818316178352505050506200027c60201b60201c565b5050565b60008151905060006a636f6e736f6c652e6c6f679050602083016000808483855afa5050505050565b600081519050919050565b7f4e487b7100000000000000000000000000000000000000000000000000000000600052604160045260246000fd5b7f4e487b7100000000000000000000000000000000000000000000000000000000600052602260045260246000fd5b600060028204905060018216806200032757607f821691505b6020821081036200033d576200033c620002df565b5b50919050565b60008190508160005260206000209050919050565b60006020601f8301049050919050565b600082821b905092915050565b600060088302620003a77fffffffffffffffffffffffffffffffffffffffffffffffffffffffffffffffff8262000368565b620003b3868362000368565b95508019841693508086168417925050509392505050565b6000819050919050565b6000819050919050565b600062000400620003fa620003f484620003cb565b620003d5565b620003cb565b9050919050565b6000819050919050565b6200041c83620003df565b620004346200042b8262000407565b84845462000375565b825550505050565b600090565b6200044b6200043c565b6200045881848462000411565b505050565b5b8181101562000480576200047460008262000441565b6001810190506200045e565b5050565b601f821115620004cf57620004998162000343565b620004a48462000358565b81016020851015620004b4578190505b620004cc620004c38562000358565b8301826200045d565b50505b505050565b600082821c905092915050565b6000620004f460001984600802620004d4565b1980831691505092915050565b60006200050f8383620004e1565b9150826002028217905092915050565b6200052a82620002a5565b67ffffffffffffffff811115620005465762000545620002b0565b5b6200055282546200030e565b6200055f82828562000484565b600060209050601f83116001811462000597576000841562000582578287015190505b6200058e858262000501565b865550620005fe565b601f198416620005a78662000343565b60005b82811015620005d157848901518255600182019150602085019450602081019050620005aa565b86831015620005f15784890151620005ed601f891682620004e1565b8355505b6001600288020188555050505b505050505050565b6000604051905090565b600080fd5b600080fd5b600080fd5b600080fd5b6000601f19601f8301169050919050565b620006408262000624565b810181811067ffffffffffffffff82111715620006625762000661620002b0565b5b80604052505050565b60006200067762000606565b905062000685828262000635565b919050565b600067ffffffffffffffff821115620006a857620006a7620002b0565b5b620006b38262000624565b9050602081019050919050565b60005b83811015620006e0578082015181840152602081019050620006c3565b60008484015250505050565b600062000703620006fd846200068a565b6200066b565b9050828152602081018484840111156200072257620007216200061f565b5b6200072f848285620006c0565b509392505050565b600082601f8301126200074f576200074e6200061a565b5b815162000761848260208601620006ec565b91505092915050565b60006020828403121562000783576200078262000610565b5b600082015167ffffffffffffffff811115620007a457620007a362000615565b5b620007b28482850162000737565b91505092915050565b600082825260208201905092915050565b6000620007d982620002a5565b620007e58185620007bb565b9350620007f7818560208601620006c0565b620008028162000624565b840191505092915050565b60006040820190508181036000830152620008298185620007cc565b905081810360208301526200083f8184620007cc565b90509392505050565b614a9580620008586000396000f3fe6080604052600436106101815760003560e01c806370a08231116100d1578063bf40fac11161008a578063e985e9c511610064578063e985e9c5146105cc578063f2c298be14610609578063fb825e5f14610625578063fe2c61981461065057610181565b8063bf40fac114610529578063c1880a9814610566578063c87b56dd1461058f57610181565b806370a08231146104195780638da5cb5b146104565780638f32d59b1461048157806395d89b41146104ac578063a22cb465146104d7578063b88d4fde1461050057610181565b8063264492351161013e57806342842e0e1161011857806342842e0e146103395780634622ab0314610362578063541e771d1461039f5780636352211e146103dc57610181565b806326449235146102ba5780632d551432146102f75780633ccfd60b1461032257610181565b806301ffc9a71461018657806306fdde03146101c3578063081812fc146101ee578063095ea7b31461022b57806311dd88451461025457806323b872dd14610291575b600080fd5b34801561019257600080fd5b506101ad60048036038101906101a89190612e4a565b61068d565b6040516101ba9190612e92565b60405180910390f35b3480156101cf57600080fd5b506101d861076f565b6040516101e59190612f3d565b60405180910390f35b3480156101fa57600080fd5b5061021560048036038101906102109190612f95565b610801565b6040516102229190613003565b60405180910390f35b34801561023757600080fd5b50610252600480360381019061024d919061304a565b610847565b005b34801561026057600080fd5b5061027b600480360381019061027691906130ef565b61095e565b6040516102889190612f3d565b60405180910390f35b34801561029d57600080fd5b506102b860048036038101906102b3919061313c565b610a11565b005b3480156102c657600080fd5b506102e160048036038101906102dc91906132bf565b610a71565b6040516102ee9190613003565b60405180910390f35b34801561030357600080fd5b5061030c610aba565b6040516103199190612f3d565b60405180910390f35b34801561032e57600080fd5b50610337610b48565b005b34801561034557600080fd5b50610360600480360381019061035b919061313c565b610c0e565b005b34801561036e57600080fd5b5061038960048036038101906103849190612f95565b610c2e565b6040516103969190612f3d565b60405180910390f35b3480156103ab57600080fd5b506103c660048036038101906103c191906132bf565b610cce565b6040516103d39190612f3d565b60405180910390f35b3480156103e857600080fd5b5061040360048036038101906103fe9190612f95565b610d84565b6040516104109190613003565b60405180910390f35b34801561042557600080fd5b50610440600480360381019061043b9190613308565b610e0a565b60405161044d9190613344565b60405180910390f35b34801561046257600080fd5b5061046b610ec1565b6040516104789190613380565b60405180910390f35b34801561048d57600080fd5b50610496610ee7565b6040516104a39190612e92565b60405180910390f35b3480156104b857600080fd5b506104c1610f3f565b6040516104ce9190612f3d565b60405180910390f35b3480156104e357600080fd5b506104fe60048036038101906104f991906133c7565b610fd1565b005b34801561050c57600080fd5b50610527600480360381019061052291906134a8565b610fe7565b005b34801561053557600080fd5b50610550600480360381019061054b91906130ef565b611049565b60405161055d9190613003565b60405180910390f35b34801561057257600080fd5b5061058d6004803603810190610588919061352b565b611094565b005b34801561059b57600080fd5b506105b660048036038101906105b19190612f95565b611142565b6040516105c39190612f3d565b60405180910390f35b3480156105d857600080fd5b506105f360048036038101906105ee91906135ac565b611254565b6040516106009190612e92565b60405180910390f35b610623600480360381019061061e91906130ef565b6112e8565b005b34801561063157600080fd5b5061063a6116c9565b60405161064791906136f8565b60405180910390f35b34801561065c57600080fd5b50610677600480360381019061067291906130ef565b6118a7565b6040516106849190613344565b60405180910390f35b60007f80ac58cd000000000000000000000000000000000000000000000000000000007bffffffffffffffffffffffffffffffffffffffffffffffffffffffff1916827bffffffffffffffffffffffffffffffffffffffffffffffffffffffff1916148061075857507f5b5e139f000000000000000000000000000000000000000000000000000000007bffffffffffffffffffffffffffffffffffffffffffffffffffffffff1916827bffffffffffffffffffffffffffffffffffffffffffffffffffffffff1916145b806107685750610767826119e7565b5b9050919050565b60606000805461077e90613749565b80601f01602080910402602001604051908101604052809291908181526020018280546107aa90613749565b80156107f75780601f106107cc576101008083540402835291602001916107f7565b820191906000526020600020905b8154815290600101906020018083116107da57829003601f168201915b5050505050905090565b600061080c82611a51565b6004600083815260200190815260200160002060009054906101000a900473ffffffffffffffffffffffffffffffffffffffff169050919050565b600061085282610d84565b90508073ffffffffffffffffffffffffffffffffffffffff168373ffffffffffffffffffffffffffffffffffffffff16036108c2576040517f08c379a00000000000000000000000000000000000000000000000000000000081526004016108b9906137ec565b60405180910390fd5b8073ffffffffffffffffffffffffffffffffffffffff166108e1611a9c565b73ffffffffffffffffffffffffffffffffffffffff161480610910575061090f8161090a611a9c565b611254565b5b61094f576040517f08c379a00000000000000000000000000000000000000000000000000000000081526004016109469061387e565b60405180910390fd5b6109598383611aa4565b505050565b6060600c83836040516109729291906138ce565b9081526020016040518091039020805461098b90613749565b80601f01602080910402602001604051908101604052809291908181526020018280546109b790613749565b8015610a045780601f106109d957610100808354040283529160200191610a04565b820191906000526020600020905b8154815290600101906020018083116109e757829003601f168201915b5050505050905092915050565b610a22610a1c611a9c565b82611b5d565b610a61576040517f08c379a0000000000000000000000000000000000000000000000000000000008152600401610a5890613959565b60405180910390fd5b610a6c838383611bf2565b505050565b600b818051602081018201805184825260208301602085012081835280955050505050506000915054906101000a900473ffffffffffffffffffffffffffffffffffffffff1681565b60088054610ac790613749565b80601f0160208091040260200160405190810160405280929190818152602001828054610af390613749565b8015610b405780601f10610b1557610100808354040283529160200191610b40565b820191906000526020600020905b815481529060010190602001808311610b2357829003601f168201915b505050505081565b610b50610ee7565b610b5957600080fd5b600047905060003373ffffffffffffffffffffffffffffffffffffffff1682604051610b84906139aa565b60006040518083038185875af1925050503d8060008114610bc1576040519150601f19603f3d011682016040523d82523d6000602084013e610bc6565b606091505b5050905080610c0a576040517f08c379a0000000000000000000000000000000000000000000000000000000008152600401610c0190613a0b565b60405180910390fd5b5050565b610c2983838360405180602001604052806000815250610fe7565b505050565b600d6020528060005260406000206000915090508054610c4d90613749565b80601f0160208091040260200160405190810160405280929190818152602001828054610c7990613749565b8015610cc65780601f10610c9b57610100808354040283529160200191610cc6565b820191906000526020600020905b815481529060010190602001808311610ca957829003601f168201915b505050505081565b600c818051602081018201805184825260208301602085012081835280955050505050506000915090508054610d0390613749565b80601f0160208091040260200160405190810160405280929190818152602001828054610d2f90613749565b8015610d7c5780601f10610d5157610100808354040283529160200191610d7c565b820191906000526020600020905b815481529060010190602001808311610d5f57829003601f168201915b505050505081565b600080610d9083611eeb565b9050600073ffffffffffffffffffffffffffffffffffffffff168173ffffffffffffffffffffffffffffffffffffffff1603610e01576040517f08c379a0000000000000000000000000000000000000000000000000000000008152600401610df890613a77565b60405180910390fd5b80915050919050565b60008073ffffffffffffffffffffffffffffffffffffffff168273ffffffffffffffffffffffffffffffffffffffff1603610e7a576040517f08c379a0000000000000000000000000000000000000000000000000000000008152600401610e7190613b09565b60405180910390fd5b600360008373ffffffffffffffffffffffffffffffffffffffff1673ffffffffffffffffffffffffffffffffffffffff168152602001908152602001600020549050919050565b600e60009054906101000a900473ffffffffffffffffffffffffffffffffffffffff1681565b6000600e60009054906101000a900473ffffffffffffffffffffffffffffffffffffffff1673ffffffffffffffffffffffffffffffffffffffff163373ffffffffffffffffffffffffffffffffffffffff1614905090565b606060018054610f4e90613749565b80601f0160208091040260200160405190810160405280929190818152602001828054610f7a90613749565b8015610fc75780601f10610f9c57610100808354040283529160200191610fc7565b820191906000526020600020905b815481529060010190602001808311610faa57829003601f168201915b5050505050905090565b610fe3610fdc611a9c565b8383611f28565b5050565b610ff8610ff2611a9c565b83611b5d565b611037576040517f08c379a000000000000000000000000000000000000000000000000000000000815260040161102e90613959565b60405180910390fd5b61104384848484612094565b50505050565b6000600b838360405161105d9291906138ce565b908152602001604051809103902060009054906101000a900473ffffffffffffffffffffffffffffffffffffffff16905092915050565b3373ffffffffffffffffffffffffffffffffffffffff16600b85856040516110bd9291906138ce565b908152602001604051809103902060009054906101000a900473ffffffffffffffffffffffffffffffffffffffff1673ffffffffffffffffffffffffffffffffffffffff161461110c57600080fd5b8181600c86866040516111209291906138ce565b9081526020016040518091039020918261113b929190613ce0565b5050505050565b606061114d82611a51565b600060066000848152602001908152602001600020805461116d90613749565b80601f016020809104026020016040519081016040528092919081815260200182805461119990613749565b80156111e65780601f106111bb576101008083540402835291602001916111e6565b820191906000526020600020905b8154815290600101906020018083116111c957829003601f168201915b5050505050905060006111f76120f0565b9050600081510361120c57819250505061124f565b600082511115611241578082604051602001611229929190613de1565b6040516020818303038152906040529250505061124f565b61124a84612107565b925050505b919050565b6000600560008473ffffffffffffffffffffffffffffffffffffffff1673ffffffffffffffffffffffffffffffffffffffff16815260200190815260200160002060008373ffffffffffffffffffffffffffffffffffffffff1673ffffffffffffffffffffffffffffffffffffffff16815260200190815260200160002060009054906101000a900460ff16905092915050565b600073ffffffffffffffffffffffffffffffffffffffff16600b83836040516113129291906138ce565b908152602001604051809103902060009054906101000a900473ffffffffffffffffffffffffffffffffffffffff1673ffffffffffffffffffffffffffffffffffffffff161461136157600080fd5b600061136d83836118a7565b9050803410156113b2576040517f08c379a00000000000000000000000000000000000000000000000000000000081526004016113a990613e51565b60405180910390fd5b6000838360086040516020016113ca93929190613f40565b60405160208183030381529060405290506000600982600a6040516020016113f493929190613f71565b60405160208183030381529060405290506000611411600761216f565b9050600061146287878080601f016020809104026020016040519081016040528093929190818152602001838380828437600081840152601f19601f8201169050808301925050505050505061217d565b9050600061146f82612332565b90506115636040518060600160405280603181526020016149b66031913989898080601f016020809104026020016040519081016040528093929190818152602001838380828437600081840152601f19601f82011690508083019250505050505050600880546114df90613749565b80601f016020809104026020016040519081016040528092919081815260200182805461150b90613749565b80156115585780601f1061152d57610100808354040283529160200191611558565b820191906000526020600020905b81548152906001019060200180831161153b57829003601f168201915b505050505086612400565b600061159986611572876124a2565b846040516020016115859392919061411e565b6040516020818303038152906040526124a2565b90506000816040516020016115ae91906141c7565b60405160208183030381529060405290506115e060405180606001604052806039815260200161497d6039913961261a565b61161f6040518060400160405280600e81526020017f46696e616c20746f6b656e5552490000000000000000000000000000000000008152508261194b565b6116406040518060600160405280603981526020016149e76039913961261a565b61164a33866126b3565b61165485826126d1565b33600b8b8b6040516116679291906138ce565b908152602001604051809103902060006101000a81548173ffffffffffffffffffffffffffffffffffffffff021916908373ffffffffffffffffffffffffffffffffffffffff1602179055506116bd600761273e565b50505050505050505050565b60606117096040518060400160405280601f81526020017f47657474696e6720616c6c206e616d65732066726f6d20636f6e74726163740081525061261a565b6000611715600761216f565b67ffffffffffffffff81111561172e5761172d613194565b5b60405190808252806020026020018201604052801561176157816020015b606081526020019060019003908161174c5790505b50905060005b611771600761216f565b81101561189f57600d6000828152602001908152602001600020805461179690613749565b80601f01602080910402602001604051908101604052809291908181526020018280546117c290613749565b801561180f5780601f106117e45761010080835404028352916020019161180f565b820191906000526020600020905b8154815290600101906020018083116117f257829003601f168201915b5050505050828281518110611827576118266141e9565b5b602002602001018190525061188c6040518060400160405280601781526020017f4e616d6520666f7220746f6b656e2025642069732025730000000000000000008152508284848151811061187f5761187e6141e9565b5b6020026020010151612754565b808061189790614247565b915050611767565b508091505090565b6000806118f784848080601f016020809104026020016040519081016040528093929190818152602001838380828437600081840152601f19601f8201169050808301925050505050505061217d565b90506000811161190657600080fd5b6003810361191f576706f05b59d3b20000915050611945565b6004810361193857670429d069189e0000915050611945565b67016345785d8a00009150505b92915050565b6119e3828260405160240161196192919061428f565b6040516020818303038152906040527f4b5c4277000000000000000000000000000000000000000000000000000000007bffffffffffffffffffffffffffffffffffffffffffffffffffffffff19166020820180517bffffffffffffffffffffffffffffffffffffffffffffffffffffffff83818316178352505050506127f3565b5050565b60007f01ffc9a7000000000000000000000000000000000000000000000000000000007bffffffffffffffffffffffffffffffffffffffffffffffffffffffff1916827bffffffffffffffffffffffffffffffffffffffffffffffffffffffff1916149050919050565b611a5a8161281c565b611a99576040517f08c379a0000000000000000000000000000000000000000000000000000000008152600401611a9090613a77565b60405180910390fd5b50565b600033905090565b816004600083815260200190815260200160002060006101000a81548173ffffffffffffffffffffffffffffffffffffffff021916908373ffffffffffffffffffffffffffffffffffffffff160217905550808273ffffffffffffffffffffffffffffffffffffffff16611b1783610d84565b73ffffffffffffffffffffffffffffffffffffffff167f8c5be1e5ebec7d5bd14f71427d1e84f3dd0314c0f7b2291e5b200ac8c7c3b92560405160405180910390a45050565b600080611b6983610d84565b90508073ffffffffffffffffffffffffffffffffffffffff168473ffffffffffffffffffffffffffffffffffffffff161480611bab5750611baa8185611254565b5b80611be957508373ffffffffffffffffffffffffffffffffffffffff16611bd184610801565b73ffffffffffffffffffffffffffffffffffffffff16145b91505092915050565b8273ffffffffffffffffffffffffffffffffffffffff16611c1282610d84565b73ffffffffffffffffffffffffffffffffffffffff1614611c68576040517f08c379a0000000000000000000000000000000000000000000000000000000008152600401611c5f90614338565b60405180910390fd5b600073ffffffffffffffffffffffffffffffffffffffff168273ffffffffffffffffffffffffffffffffffffffff1603611cd7576040517f08c379a0000000000000000000000000000000000000000000000000000000008152600401611cce906143ca565b60405180910390fd5b611ce4838383600161285d565b8273ffffffffffffffffffffffffffffffffffffffff16611d0482610d84565b73ffffffffffffffffffffffffffffffffffffffff1614611d5a576040517f08c379a0000000000000000000000000000000000000000000000000000000008152600401611d5190614338565b60405180910390fd5b6004600082815260200190815260200160002060006101000a81549073ffffffffffffffffffffffffffffffffffffffff02191690556001600360008573ffffffffffffffffffffffffffffffffffffffff1673ffffffffffffffffffffffffffffffffffffffff168152602001908152602001600020600082825403925050819055506001600360008473ffffffffffffffffffffffffffffffffffffffff1673ffffffffffffffffffffffffffffffffffffffff16815260200190815260200160002060008282540192505081905550816002600083815260200190815260200160002060006101000a81548173ffffffffffffffffffffffffffffffffffffffff021916908373ffffffffffffffffffffffffffffffffffffffff160217905550808273ffffffffffffffffffffffffffffffffffffffff168473ffffffffffffffffffffffffffffffffffffffff167fddf252ad1be2c89b69c2b068fc378daa952ba7f163c4a11628f55a4df523b3ef60405160405180910390a4611ee68383836001612863565b505050565b60006002600083815260200190815260200160002060009054906101000a900473ffffffffffffffffffffffffffffffffffffffff169050919050565b8173ffffffffffffffffffffffffffffffffffffffff168373ffffffffffffffffffffffffffffffffffffffff1603611f96576040517f08c379a0000000000000000000000000000000000000000000000000000000008152600401611f8d90614436565b60405180910390fd5b80600560008573ffffffffffffffffffffffffffffffffffffffff1673ffffffffffffffffffffffffffffffffffffffff16815260200190815260200160002060008473ffffffffffffffffffffffffffffffffffffffff1673ffffffffffffffffffffffffffffffffffffffff16815260200190815260200160002060006101000a81548160ff0219169083151502179055508173ffffffffffffffffffffffffffffffffffffffff168373ffffffffffffffffffffffffffffffffffffffff167f17307eab39ab6107e8899845ad3d59bd9653f200f220920489ca2b5937696c31836040516120879190612e92565b60405180910390a3505050565b61209f848484611bf2565b6120ab84848484612869565b6120ea576040517f08c379a00000000000000000000000000000000000000000000000000000000081526004016120e1906144c8565b60405180910390fd5b50505050565b606060405180602001604052806000815250905090565b606061211282611a51565b600061211c6120f0565b9050600081511161213c5760405180602001604052806000815250612167565b8061214684612332565b604051602001612157929190613de1565b6040516020818303038152906040525b915050919050565b600081600001549050919050565b60008060008084519050600092505b808210156123275760008583815181106121a9576121a86141e9565b5b602001015160f81c60f81b9050608060f81b817effffffffffffffffffffffffffffffffffffffffffffffffffffffffffffff191610156121f8576001836121f191906144e8565b9250612313565b60e060f81b817effffffffffffffffffffffffffffffffffffffffffffffffffffffffffffff1916101561223a5760028361223391906144e8565b9250612312565b60f060f81b817effffffffffffffffffffffffffffffffffffffffffffffffffffffffffffff1916101561227c5760038361227591906144e8565b9250612311565b60f8801b817effffffffffffffffffffffffffffffffffffffffffffffffffffffffffffff191610156122bd576004836122b691906144e8565b9250612310565b60fc60f81b817effffffffffffffffffffffffffffffffffffffffffffffffffffffffffffff191610156122ff576005836122f891906144e8565b925061230f565b60068361230c91906144e8565b92505b5b5b5b5b50828061231f90614247565b93505061218c565b829350505050919050565b606060006001612341846129f0565b01905060008167ffffffffffffffff8111156123605761235f613194565b5b6040519080825280601f01601f1916602001820160405280156123925781602001600182028036833780820191505090505b509050600082602001820190505b6001156123f5578080600190039150507f3031323334353637383961626364656600000000000000000000000000000000600a86061a8153600a85816123e9576123e861451c565b5b049450600085036123a0575b819350505050919050565b61249c8484848460405160240161241a949392919061454b565b6040516020818303038152906040527f8eafb02b000000000000000000000000000000000000000000000000000000007bffffffffffffffffffffffffffffffffffffffffffffffffffffffff19166020820180517bffffffffffffffffffffffffffffffffffffffffffffffffffffffff83818316178352505050506127f3565b50505050565b606060008251036124c457604051806020016040528060008152509050612615565b6000604051806060016040528060408152602001614a2060409139905060006003600285516124f391906144e8565b6124fd91906145a5565b600461250991906145d6565b9050600060208261251a91906144e8565b67ffffffffffffffff81111561253357612532613194565b5b6040519080825280601f01601f1916602001820160405280156125655781602001600182028036833780820191505090505b509050818152600183018586518101602084015b818310156125d4576003830192508251603f8160121c168501518253600182019150603f81600c1c168501518253600182019150603f8160061c168501518253600182019150603f8116850151825360018201915050612579565b6003895106600181146125ee57600281146125fe57612609565b613d3d60f01b6002830352612609565b603d60f81b60018303525b50505050508093505050505b919050565b6126b08160405160240161262e9190612f3d565b6040516020818303038152906040527f41304fac000000000000000000000000000000000000000000000000000000007bffffffffffffffffffffffffffffffffffffffffffffffffffffffff19166020820180517bffffffffffffffffffffffffffffffffffffffffffffffffffffffff83818316178352505050506127f3565b50565b6126cd828260405180602001604052806000815250612b43565b5050565b6126da8261281c565b612719576040517f08c379a00000000000000000000000000000000000000000000000000000000081526004016127109061468a565b60405180910390fd5b8060066000848152602001908152602001600020908161273991906146aa565b505050565b6001816000016000828254019250508190555050565b6127ee83838360405160240161276c9392919061477c565b6040516020818303038152906040527f5970e089000000000000000000000000000000000000000000000000000000007bffffffffffffffffffffffffffffffffffffffffffffffffffffffff19166020820180517bffffffffffffffffffffffffffffffffffffffffffffffffffffffff83818316178352505050506127f3565b505050565b60008151905060006a636f6e736f6c652e6c6f679050602083016000808483855afa5050505050565b60008073ffffffffffffffffffffffffffffffffffffffff1661283e83611eeb565b73ffffffffffffffffffffffffffffffffffffffff1614159050919050565b50505050565b50505050565b600061288a8473ffffffffffffffffffffffffffffffffffffffff16612b9e565b156129e3578373ffffffffffffffffffffffffffffffffffffffff1663150b7a026128b3611a9c565b8786866040518563ffffffff1660e01b81526004016128d59493929190614816565b6020604051808303816000875af192505050801561291157506040513d601f19601f8201168201806040525081019061290e9190614877565b60015b612993573d8060008114612941576040519150601f19603f3d011682016040523d82523d6000602084013e612946565b606091505b50600081510361298b576040517f08c379a0000000000000000000000000000000000000000000000000000000008152600401612982906144c8565b60405180910390fd5b805181602001fd5b63150b7a0260e01b7bffffffffffffffffffffffffffffffffffffffffffffffffffffffff1916817bffffffffffffffffffffffffffffffffffffffffffffffffffffffff1916149150506129e8565b600190505b949350505050565b600080600090507a184f03e93ff9f4daa797ed6e38ed64bf6a1f0100000000000000008310612a4e577a184f03e93ff9f4daa797ed6e38ed64bf6a1f0100000000000000008381612a4457612a4361451c565b5b0492506040810190505b6d04ee2d6d415b85acef81000000008310612a8b576d04ee2d6d415b85acef81000000008381612a8157612a8061451c565b5b0492506020810190505b662386f26fc100008310612aba57662386f26fc100008381612ab057612aaf61451c565b5b0492506010810190505b6305f5e1008310612ae3576305f5e1008381612ad957612ad861451c565b5b0492506008810190505b6127108310612b08576127108381612afe57612afd61451c565b5b0492506004810190505b60648310612b2b5760648381612b2157612b2061451c565b5b0492506002810190505b600a8310612b3a576001810190505b80915050919050565b612b4d8383612bc1565b612b5a6000848484612869565b612b99576040517f08c379a0000000000000000000000000000000000000000000000000000000008152600401612b90906144c8565b60405180910390fd5b505050565b6000808273ffffffffffffffffffffffffffffffffffffffff163b119050919050565b600073ffffffffffffffffffffffffffffffffffffffff168273ffffffffffffffffffffffffffffffffffffffff1603612c30576040517f08c379a0000000000000000000000000000000000000000000000000000000008152600401612c27906148f0565b60405180910390fd5b612c398161281c565b15612c79576040517f08c379a0000000000000000000000000000000000000000000000000000000008152600401612c709061495c565b60405180910390fd5b612c8760008383600161285d565b612c908161281c565b15612cd0576040517f08c379a0000000000000000000000000000000000000000000000000000000008152600401612cc79061495c565b60405180910390fd5b6001600360008473ffffffffffffffffffffffffffffffffffffffff1673ffffffffffffffffffffffffffffffffffffffff16815260200190815260200160002060008282540192505081905550816002600083815260200190815260200160002060006101000a81548173ffffffffffffffffffffffffffffffffffffffff021916908373ffffffffffffffffffffffffffffffffffffffff160217905550808273ffffffffffffffffffffffffffffffffffffffff16600073ffffffffffffffffffffffffffffffffffffffff167fddf252ad1be2c89b69c2b068fc378daa952ba7f163c4a11628f55a4df523b3ef60405160405180910390a4612dda600083836001612863565b5050565b6000604051905090565b600080fd5b600080fd5b60007fffffffff0000000000000000000000000000000000000000000000000000000082169050919050565b612e2781612df2565b8114612e3257600080fd5b50565b600081359050612e4481612e1e565b92915050565b600060208284031215612e6057612e5f612de8565b5b6000612e6e84828501612e35565b91505092915050565b60008115159050919050565b612e8c81612e77565b82525050565b6000602082019050612ea76000830184612e83565b92915050565b600081519050919050565b600082825260208201905092915050565b60005b83811015612ee7578082015181840152602081019050612ecc565b60008484015250505050565b6000601f19601f8301169050919050565b6000612f0f82612ead565b612f198185612eb8565b9350612f29818560208601612ec9565b612f3281612ef3565b840191505092915050565b60006020820190508181036000830152612f578184612f04565b905092915050565b6000819050919050565b612f7281612f5f565b8114612f7d57600080fd5b50565b600081359050612f8f81612f69565b92915050565b600060208284031215612fab57612faa612de8565b5b6000612fb984828501612f80565b91505092915050565b600073ffffffffffffffffffffffffffffffffffffffff82169050919050565b6000612fed82612fc2565b9050919050565b612ffd81612fe2565b82525050565b60006020820190506130186000830184612ff4565b92915050565b61302781612fe2565b811461303257600080fd5b50565b6000813590506130448161301e565b92915050565b6000806040838503121561306157613060612de8565b5b600061306f85828601613035565b925050602061308085828601612f80565b9150509250929050565b600080fd5b600080fd5b600080fd5b60008083601f8401126130af576130ae61308a565b5b8235905067ffffffffffffffff8111156130cc576130cb61308f565b5b6020830191508360018202830111156130e8576130e7613094565b5b9250929050565b6000806020838503121561310657613105612de8565b5b600083013567ffffffffffffffff81111561312457613123612ded565b5b61313085828601613099565b92509250509250929050565b60008060006060848603121561315557613154612de8565b5b600061316386828701613035565b935050602061317486828701613035565b925050604061318586828701612f80565b9150509250925092565b600080fd5b7f4e487b7100000000000000000000000000000000000000000000000000000000600052604160045260246000fd5b6131cc82612ef3565b810181811067ffffffffffffffff821117156131eb576131ea613194565b5b80604052505050565b60006131fe612dde565b905061320a82826131c3565b919050565b600067ffffffffffffffff82111561322a57613229613194565b5b61323382612ef3565b9050602081019050919050565b82818337600083830152505050565b600061326261325d8461320f565b6131f4565b90508281526020810184848401111561327e5761327d61318f565b5b613289848285613240565b509392505050565b600082601f8301126132a6576132a561308a565b5b81356132b684826020860161324f565b91505092915050565b6000602082840312156132d5576132d4612de8565b5b600082013567ffffffffffffffff8111156132f3576132f2612ded565b5b6132ff84828501613291565b91505092915050565b60006020828403121561331e5761331d612de8565b5b600061332c84828501613035565b91505092915050565b61333e81612f5f565b82525050565b60006020820190506133596000830184613335565b92915050565b600061336a82612fc2565b9050919050565b61337a8161335f565b82525050565b60006020820190506133956000830184613371565b92915050565b6133a481612e77565b81146133af57600080fd5b50565b6000813590506133c18161339b565b92915050565b600080604083850312156133de576133dd612de8565b5b60006133ec85828601613035565b92505060206133fd858286016133b2565b9150509250929050565b600067ffffffffffffffff82111561342257613421613194565b5b61342b82612ef3565b9050602081019050919050565b600061344b61344684613407565b6131f4565b9050828152602081018484840111156134675761346661318f565b5b613472848285613240565b509392505050565b600082601f83011261348f5761348e61308a565b5b813561349f848260208601613438565b91505092915050565b600080600080608085870312156134c2576134c1612de8565b5b60006134d087828801613035565b94505060206134e187828801613035565b93505060406134f287828801612f80565b925050606085013567ffffffffffffffff81111561351357613512612ded565b5b61351f8782880161347a565b91505092959194509250565b6000806000806040858703121561354557613544612de8565b5b600085013567ffffffffffffffff81111561356357613562612ded565b5b61356f87828801613099565b9450945050602085013567ffffffffffffffff81111561359257613591612ded565b5b61359e87828801613099565b925092505092959194509250565b600080604083850312156135c3576135c2612de8565b5b60006135d185828601613035565b92505060206135e285828601613035565b9150509250929050565b600081519050919050565b600082825260208201905092915050565b6000819050602082019050919050565b600082825260208201905092915050565b600061363482612ead565b61363e8185613618565b935061364e818560208601612ec9565b61365781612ef3565b840191505092915050565b600061366e8383613629565b905092915050565b6000602082019050919050565b600061368e826135ec565b61369881856135f7565b9350836020820285016136aa85613608565b8060005b858110156136e657848403895281516136c78582613662565b94506136d283613676565b925060208a019950506001810190506136ae565b50829750879550505050505092915050565b600060208201905081810360008301526137128184613683565b905092915050565b7f4e487b7100000000000000000000000000000000000000000000000000000000600052602260045260246000fd5b6000600282049050600182168061376157607f821691505b6020821081036137745761377361371a565b5b50919050565b7f4552433732313a20617070726f76616c20746f2063757272656e74206f776e6560008201527f7200000000000000000000000000000000000000000000000000000000000000602082015250565b60006137d6602183612eb8565b91506137e18261377a565b604082019050919050565b60006020820190508181036000830152613805816137c9565b9050919050565b7f4552433732313a20617070726f76652063616c6c6572206973206e6f7420746f60008201527f6b656e206f776e6572206f7220617070726f76656420666f7220616c6c000000602082015250565b6000613868603d83612eb8565b91506138738261380c565b604082019050919050565b600060208201905081810360008301526138978161385b565b9050919050565b600081905092915050565b60006138b5838561389e565b93506138c2838584613240565b82840190509392505050565b60006138db8284866138a9565b91508190509392505050565b7f4552433732313a2063616c6c6572206973206e6f7420746f6b656e206f776e6560008201527f72206f7220617070726f76656400000000000000000000000000000000000000602082015250565b6000613943602d83612eb8565b915061394e826138e7565b604082019050919050565b6000602082019050818103600083015261397281613936565b9050919050565b600081905092915050565b50565b6000613994600083613979565b915061399f82613984565b600082019050919050565b60006139b582613987565b9150819050919050565b7f4661696c656420746f2077697468647261772045544800000000000000000000600082015250565b60006139f5601683612eb8565b9150613a00826139bf565b602082019050919050565b60006020820190508181036000830152613a24816139e8565b9050919050565b7f4552433732313a20696e76616c696420746f6b656e2049440000000000000000600082015250565b6000613a61601883612eb8565b9150613a6c82613a2b565b602082019050919050565b60006020820190508181036000830152613a9081613a54565b9050919050565b7f4552433732313a2061646472657373207a65726f206973206e6f74206120766160008201527f6c6964206f776e65720000000000000000000000000000000000000000000000602082015250565b6000613af3602983612eb8565b9150613afe82613a97565b604082019050919050565b60006020820190508181036000830152613b2281613ae6565b9050919050565b600082905092915050565b60008190508160005260206000209050919050565b60006020601f8301049050919050565b600082821b905092915050565b600060088302613b967fffffffffffffffffffffffffffffffffffffffffffffffffffffffffffffffff82613b59565b613ba08683613b59565b95508019841693508086168417925050509392505050565b6000819050919050565b6000613bdd613bd8613bd384612f5f565b613bb8565b612f5f565b9050919050565b6000819050919050565b613bf783613bc2565b613c0b613c0382613be4565b848454613b66565b825550505050565b600090565b613c20613c13565b613c2b818484613bee565b505050565b5b81811015613c4f57613c44600082613c18565b600181019050613c31565b5050565b601f821115613c9457613c6581613b34565b613c6e84613b49565b81016020851015613c7d578190505b613c91613c8985613b49565b830182613c30565b50505b505050565b600082821c905092915050565b6000613cb760001984600802613c99565b1980831691505092915050565b6000613cd08383613ca6565b9150826002028217905092915050565b613cea8383613b29565b67ffffffffffffffff811115613d0357613d02613194565b5b613d0d8254613749565b613d18828285613c53565b6000601f831160018114613d475760008415613d35578287013590505b613d3f8582613cc4565b865550613da7565b601f198416613d5586613b34565b60005b82811015613d7d57848901358255600182019150602085019450602081019050613d58565b86831015613d9a5784890135613d96601f891682613ca6565b8355505b6001600288020188555050505b50505050505050565b6000613dbb82612ead565b613dc5818561389e565b9350613dd5818560208601612ec9565b80840191505092915050565b6000613ded8285613db0565b9150613df98284613db0565b91508190509392505050565b7f4e6f7420656e6f75676820455448207061696400000000000000000000000000600082015250565b6000613e3b601383612eb8565b9150613e4682613e05565b602082019050919050565b60006020820190508181036000830152613e6a81613e2e565b9050919050565b7f2e00000000000000000000000000000000000000000000000000000000000000600082015250565b6000613ea760018361389e565b9150613eb282613e71565b600182019050919050565b60008154613eca81613749565b613ed4818661389e565b94506001821660008114613eef5760018114613f0457613f37565b60ff1983168652811515820286019350613f37565b613f0d85613b34565b60005b83811015613f2f57815481890152600182019150602081019050613f10565b838801955050505b50505092915050565b6000613f4d8285876138a9565b9150613f5882613e9a565b9150613f648284613ebd565b9150819050949350505050565b6000613f7d8286613ebd565b9150613f898285613db0565b9150613f958284613ebd565b9150819050949350505050565b7f7b226e616d655b695d223a202200000000000000000000000000000000000000600082015250565b6000613fd8600d8361389e565b9150613fe382613fa2565b600d82019050919050565b7f222c20226465736372697074696f6e223a20224120646f6d61696e206f6e207460008201527f686520536f6c6f4472616674222c2022696d616765223a2022646174613a696d60208201527f6167652f7376672b786d6c3b6261736536342c00000000000000000000000000604082015250565b600061407060538361389e565b915061407b82613fee565b605382019050919050565b7f222c226c656e677468223a220000000000000000000000000000000000000000600082015250565b60006140bc600c8361389e565b91506140c782614086565b600c82019050919050565b7f227d000000000000000000000000000000000000000000000000000000000000600082015250565b600061410860028361389e565b9150614113826140d2565b600282019050919050565b600061412982613fcb565b91506141358286613db0565b915061414082614063565b915061414c8285613db0565b9150614157826140af565b91506141638284613db0565b915061416e826140fb565b9150819050949350505050565b7f646174613a6170706c69636174696f6e2f6a736f6e3b6261736536342c000000600082015250565b60006141b1601d8361389e565b91506141bc8261417b565b601d82019050919050565b60006141d2826141a4565b91506141de8284613db0565b915081905092915050565b7f4e487b7100000000000000000000000000000000000000000000000000000000600052603260045260246000fd5b7f4e487b7100000000000000000000000000000000000000000000000000000000600052601160045260246000fd5b600061425282612f5f565b91507fffffffffffffffffffffffffffffffffffffffffffffffffffffffffffffffff820361428457614283614218565b5b600182019050919050565b600060408201905081810360008301526142a98185612f04565b905081810360208301526142bd8184612f04565b90509392505050565b7f4552433732313a207472616e736665722066726f6d20696e636f72726563742060008201527f6f776e6572000000000000000000000000000000000000000000000000000000602082015250565b6000614322602583612eb8565b915061432d826142c6565b604082019050919050565b6000602082019050818103600083015261435181614315565b9050919050565b7f4552433732313a207472616e7366657220746f20746865207a65726f2061646460008201527f7265737300000000000000000000000000000000000000000000000000000000602082015250565b60006143b4602483612eb8565b91506143bf82614358565b604082019050919050565b600060208201905081810360008301526143e3816143a7565b9050919050565b7f4552433732313a20617070726f766520746f2063616c6c657200000000000000600082015250565b6000614420601983612eb8565b915061442b826143ea565b602082019050919050565b6000602082019050818103600083015261444f81614413565b9050919050565b7f4552433732313a207472616e7366657220746f206e6f6e20455243373231526560008201527f63656976657220696d706c656d656e7465720000000000000000000000000000602082015250565b60006144b2603283612eb8565b91506144bd82614456565b604082019050919050565b600060208201905081810360008301526144e1816144a5565b9050919050565b60006144f382612f5f565b91506144fe83612f5f565b925082820190508082111561451657614515614218565b5b92915050565b7f4e487b7100000000000000000000000000000000000000000000000000000000600052601260045260246000fd5b600060808201905081810360008301526145658187612f04565b905081810360208301526145798186612f04565b9050818103604083015261458d8185612f04565b905061459c6060830184613335565b95945050505050565b60006145b082612f5f565b91506145bb83612f5f565b9250826145cb576145ca61451c565b5b828204905092915050565b60006145e182612f5f565b91506145ec83612f5f565b92508282026145fa81612f5f565b9150828204841483151761461157614610614218565b5b5092915050565b7f45524337323155524953746f726167653a2055524920736574206f66206e6f6e60008201527f6578697374656e7420746f6b656e000000000000000000000000000000000000602082015250565b6000614674602e83612eb8565b915061467f82614618565b604082019050919050565b600060208201905081810360008301526146a381614667565b9050919050565b6146b382612ead565b67ffffffffffffffff8111156146cc576146cb613194565b5b6146d68254613749565b6146e1828285613c53565b600060209050601f8311600181146147145760008415614702578287015190505b61470c8582613cc4565b865550614774565b601f19841661472286613b34565b60005b8281101561474a57848901518255600182019150602085019450602081019050614725565b868310156147675784890151614763601f891682613ca6565b8355505b6001600288020188555050505b505050505050565b600060608201905081810360008301526147968186612f04565b90506147a56020830185613335565b81810360408301526147b78184612f04565b9050949350505050565b600081519050919050565b600082825260208201905092915050565b60006147e8826147c1565b6147f281856147cc565b9350614802818560208601612ec9565b61480b81612ef3565b840191505092915050565b600060808201905061482b6000830187612ff4565b6148386020830186612ff4565b6148456040830185613335565b818103606083015261485781846147dd565b905095945050505050565b60008151905061487181612e1e565b92915050565b60006020828403121561488d5761488c612de8565b5b600061489b84828501614862565b91505092915050565b7f4552433732313a206d696e7420746f20746865207a65726f2061646472657373600082015250565b60006148da602083612eb8565b91506148e5826148a4565b602082019050919050565b60006020820190508181036000830152614909816148cd565b9050919050565b7f4552433732313a20746f6b656e20616c7265616479206d696e74656400000000600082015250565b6000614946601c83612eb8565b915061495182614910565b602082019050919050565b6000602082019050818103600083015261497581614939565b905091905056fe0a2d2d2d2d2d2d2d2d2d2d2d2d2d2d2d2d2d2d2d2d2d2d2d2d2d2d2d2d2d2d2d2d2d2d2d2d2d2d2d2d2d2d2d2d2d2d2d2d2d2d2d2d2d2d2d2d5265676973746572696e672025732e2573206f6e2074686520636f6e7472616374207769746820746f6b656e49442025642d2d2d2d2d2d2d2d2d2d2d2d2d2d2d2d2d2d2d2d2d2d2d2d2d2d2d2d2d2d2d2d2d2d2d2d2d2d2d2d2d2d2d2d2d2d2d2d2d2d2d2d2d2d2d2d0a4142434445464748494a4b4c4d4e4f505152535455565758595a6162636465666768696a6b6c6d6e6f707172737475767778797a303132333435363738392b2fa2646970667358221220d4e7c70a4ad711c7a8a63f33b8118c84a350dc4df013162a3ab58cceaf16d30964736f6c634300081200333c73766720786d6c6e733d22687474703a2f2f7777772e77332e6f72672f323030302f737667222077696474683d2232373022206865696768743d22323730222066696c6c3d226e6f6e65223e3c706174682066696c6c3d2275726c282342292220643d224d302030683237307632373048307a222f3e3c646566733e3c66696c7465722069643d22412220636f6c6f722d696e746572706f6c6174696f6e2d66696c746572733d2273524742222066696c746572556e6974733d227573657253706163654f6e55736522206865696768743d22323730222077696474683d22323730223e3c666544726f70536861646f772064783d2230222064793d22312220737464446576696174696f6e3d22322220666c6f6f642d6f7061636974793d222e323235222077696474683d223230302522206865696768743d2232303025222f3e3c2f66696c7465723e3c2f646566733e3c7061746820643d224d37322e3836332034322e393439632d2e3636382d2e3338372d312e3432362d2e35392d322e3139372d2e3539732d312e3532392e3230342d322e3139372e35396c2d31302e30383120362e3033322d362e383520332e3933342d31302e30383120362e303332632d2e3636382e3338372d312e3432362e35392d322e3139372e3539732d312e3532392d2e3230342d322e3139372d2e35396c2d382e3031332d342e37323161342e353220342e35322030203020312d312e3538392d312e363136632d2e3338342d2e3636352d2e3539342d312e3431382d2e3630382d322e313837762d392e3331632d2e3031332d2e3737352e3138352d312e3533382e3537322d322e32303861342e323520342e323520302030203120312e3632352d312e3539356c372e3838342d342e3539632e3636382d2e33383720312e3432362d2e353920322e3139372d2e353973312e3532392e32303420322e3139372e35396c372e38383420342e353961342e353220342e353220302030203120312e35383920312e363136632e3338342e3636352e35393420312e3431382e36303820322e31383776362e3033326c362e38352d342e303635762d362e303332632e3031332d2e3737352d2e3138352d312e3533382d2e3537322d322e32303861342e323520342e32352030203020302d312e3632352d312e3539354c34312e3435362032342e3539632d2e3636382d2e3338372d312e3432362d2e35392d322e3139372d2e3539732d312e3532392e3230342d322e3139372e35396c2d31342e38363420382e36353561342e323520342e32352030203020302d312e36323520312e353935632d2e3338372e36372d2e35383520312e3433342d2e35373220322e3230387631372e343431632d2e3031332e3737352e31383520312e3533382e35373220322e32303861342e323520342e323520302030203020312e36323520312e3539356c31342e38363420382e363535632e3636382e33383720312e3432362e353920322e3139372e353973312e3532392d2e32303420322e3139372d2e35396c31302e3038312d352e39303120362e38352d342e3036352031302e3038312d352e393031632e3636382d2e33383720312e3432362d2e353920322e3139372d2e353973312e3532392e32303420322e3139372e35396c372e38383420342e353961342e353220342e353220302030203120312e35383920312e363136632e3338342e3636352e35393420312e3431382e36303820322e31383776392e333131632e3031332e3737352d2e31383520312e3533382d2e35373220322e32303861342e323520342e32352030203020312d312e36323520312e3539356c2d372e38383420342e373231632d2e3636382e3338372d312e3432362e35392d322e3139372e3539732d312e3532392d2e3230342d322e3139372d2e35396c2d372e3838342d342e353961342e353220342e35322030203020312d312e3538392d312e363136632d2e3338352d2e3636352d2e3539342d312e3431382d2e3630382d322e313837762d362e3033326c2d362e383520342e30363576362e303332632d2e3031332e3737352e31383520312e3533382e35373220322e32303861342e323520342e323520302030203020312e36323520312e3539356c31342e38363420382e363535632e3636382e33383720312e3432362e353920322e3139372e353973312e3532392d2e32303420322e3139372d2e35396c31342e3836342d382e363535632e3635372d2e33393420312e3230342d2e393520312e3538392d312e363136732e3539342d312e3431382e3630392d322e3138375635352e353338632e3031332d2e3737352d2e3138352d312e3533382d2e3537322d322e32303861342e323520342e32352030203020302d312e3632352d312e3539356c2d31342e3939332d382e3738367a222066696c6c3d2223666666222f3e3c646566733e3c6c696e6561724772616469656e742069643d2242222078313d2230222079313d2230222078323d22323730222079323d2232373022206772616469656e74556e6974733d227573657253706163654f6e557365223e3c73746f702073746f702d636f6c6f723d2223636235656565222f3e3c73746f70206f66667365743d2231222073746f702d636f6c6f723d2223306364376534222073746f702d6f7061636974793d222e3939222f3e3c2f6c696e6561724772616469656e743e3c2f646566733e3c7465787420783d2233322e352220793d223233312220666f6e742d73697a653d223237222066696c6c3d2223666666222066696c7465723d2275726c282341292220666f6e742d66616d696c793d22506c7573204a616b617274612053616e732c44656a6156752053616e732c4e6f746f20436f6c6f7220456d6f6a692c4170706c6520436f6c6f7220456d6f6a692c73616e732d73657269662220666f6e742d7765696768743d22626f6c64223e",
	"linkReferences": {},
	"deployedLinkReferences": {}
}